:100000000C9404010C94D8010C9409020C943A024B
:100010000C946B020C949C020C94CD020C94FE0286
:100020000C942F030C942E010C942E010C942E0191
:100030000C942E010C9415180C942E010C942E0186
:100040000C942E010C942E010C942E010C942E0174
:100050000C942E010C942E010C942E010C94600330
:100060000C942E010C944B110C942E010C942E0127
:100070000C942E010C942E010C942E010C942E0144
:100080000C942E010C942E010C942E010C942E0134
:100090000C948C110C942E010C942E010C942E01B6
:1000A0000C942E010C942E010C942E010C942E0114
:1000B0000C942E010C942E010C942E010C942E0104
:1000C0000C942E010C942E010C942E010C94CD1145
:1000D0000C942E010C942E010C940E120C942E01F3
:1000E0000C942E010200002100240027002A002D7C
:1000F000003000330001010000040107010A010083
:10010000002200250028002B002E003100340002C0
:10011000010000050108010B01000020002300265A
:100120000029002C002F003200000100000301060E
:10013000010901050505050705080808080202026E
:10014000020A0A0808040404040101010101010172
:10015000010303030303030303040707070C0C0C49
:100160000C0C0C0C0C020202020606060606060621
:10017000060B0B0B0B0B0B0B0B01021020200808BE
:1001800010204010204080020102010804020101F9
:1001900002040810204080804020100804020180E2
:1001A0000402018040201008040201080402010139
:1001B0000204081020408001020408102040800042
:1001C00000090A02080B0C0D0706030401000000D9
:1001D000000000000000000000000000000000001F
:1001E0000000000000000000000000100F0E0000E2
:1001F00000000000000000000000000000000000FF
:100200000000000000003F1411241FBECFEFD1E218
:10021000DEBFCDBF13E0A0E0B2E0E2E1FAE400E02F
:100220000BBF02C007900D92A434B107D9F715E0B7
:10023000A4E4B3E001C01D92A83EB107E1F712E0CB
:10024000C8E0D2E004C02297FE010E94E824C63034
:10025000D107C9F70E9430110C9407250C940000B7
:10026000883008F078C0E82FF0E0EE0FFF1FEC5B5D
:10027000FC4F718360838330D9F0843030F4813057
:1002800009F444C0823060F439C0853051F18530C2
:10029000D8F0863009F446C0873009F05CC04FC002
:1002A000809169008C7F842B80936900E89A08957F
:1002B00080916900440F551F440F551F837F842B85
:1002C00080936900E99A08958091690074E0440F71
:1002D000551F7A95E1F78F7C842B80936900EA9A09
:1002E00008958091690066E0440F551F6A95E1F713
:1002F0008F73842B80936900EB9A089580916A0034
:100300008C7F842B80936A00EC9A089580916A0018
:10031000440F551F440F551F837F842B80936A0021
:10032000ED9A089580916A0024E0440F551F2A95A4
:10033000E1F78F7C842B80936A00EE9A0895809178
:100340006A0096E0440F551F9A95E1F78F73842B4E
:1003500080936A00EF9A0895883048F5833091F0D1
:10036000843028F48130B1F0823050F411C08530EF
:1003700069F0853048F0863079F0873081F40EC01E
:10038000E8980DC0E9980BC0EA9809C0EB9807C03F
:10039000EC9805C0ED9803C0EE9801C0EF98E82FE7
:1003A000F0E0EE0FFF1FEC5BFC4F1182108208950E
:1003B0001F920F920FB60F920BB60F9211242F932C
:1003C0003F934F935F936F937F938F939F93AF93DD
:1003D000BF93EF93FF938091480390914903892B3A
:1003E00029F0E0914803F09149030995FF91EF91BD
:1003F000BF91AF919F918F917F916F915F914F913D
:100400003F912F910F900BBE0F900FBE0F901F903A
:1004100018951F920F920FB60F920BB60F921124E0
:100420002F933F934F935F936F937F938F939F93FC
:10043000AF93BF93EF93FF9380914A0390914B0347
:10044000892B29F0E0914A03F0914B030995FF9124
:10045000EF91BF91AF919F918F917F916F915F913C
:100460004F913F912F910F900BBE0F900FBE0F90A9
:100470001F9018951F920F920FB60F920BB60F9206
:1004800011242F933F934F935F936F937F938F9399
:100490009F93AF93BF93EF93FF9380914C03909101
:1004A0004D03892B29F0E0914C03F0914D03099500
:1004B000FF91EF91BF91AF919F918F917F916F913C
:1004C0005F914F913F912F910F900BBE0F900FBEF8
:1004D0000F901F9018951F920F920FB60F920BB6A8
:1004E0000F9211242F933F934F935F936F937F93BA
:1004F0008F939F93AF93BF93EF93FF9380914E039E
:1005000090914F03892B29F0E0914E03F0914F0316
:100510000995FF91EF91BF91AF919F918F917F913D
:100520006F915F914F913F912F910F900BBE0F9064
:100530000FBE0F901F9018951F920F920FB60F923B
:100540000BB60F9211242F933F934F935F936F93AA
:100550007F938F939F93AF93BF93EF93FF9380917C
:10056000440390914503892B29F0E0914403F091D5
:1005700045030995FF91EF91BF91AF919F918F91A5
:100580007F916F915F914F913F912F910F900BBE93
:100590000F900FBE0F901F9018951F920F920FB6DD
:1005A0000F920BB60F9211242F933F934F935F93AB
:1005B0006F937F938F939F93AF93BF93EF93FF932B
:1005C0008091460390914703892B29F0E0914603DF
:1005D000F09147030995FF91EF91BF91AF919F91E2
:1005E0008F917F916F915F914F913F912F910F90DC
:1005F0000BBE0F900FBE0F901F9018951F920F9279
:100600000FB60F920BB60F9211242F933F934F9377
:100610005F936F937F938F939F93AF93BF93EF936A
:10062000FF938091500390915103892B29F0E09121
:100630005003F09151030995FF91EF91BF91AF9154
:100640009F918F917F916F915F914F913F912F91EA
:100650000F900BBE0F900FBE0F901F9018951F921A
:100660000F920FB60F920BB60F9211242F933F9358
:100670004F935F936F937F938F939F93AF93BF93AA
:10068000EF93FF938091520390915303892B29F0AC
:10069000E0915203F09153030995FF91EF91BF91BF
:1006A000AF919F918F917F916F915F914F913F910A
:1006B0002F910F900BBE0F900FBE0F901F901895AB
:1006C0001F920F920FB60F9211242F933F938F9387
:1006D0009F93AF93BF938091580390915903A0913A
:1006E0005A03B0915B0330915C030196A11DB11DCB
:1006F000232F2D5F2D3720F02D570196A11DB11D01
:1007000020935C038093580390935903A0935A035A
:10071000B0935B038091540390915503A0915603CD
:10072000B09157030196A11DB11D8093540390937E
:100730005503A0935603B0935703BF91AF919F9178
:100740008F913F912F910F900FBE0F901F90189592
:100750008FB7F894209158033091590340915A0370
:1007600050915B038FBFB901CA0108959FB7F894F8
:1007700020915403309155034091560350915703F3
:1007800086B5A89B06C08F3F21F02F5F3F4F4F4F8C
:100790005F4F9FBF542F432F322F2227280F311D29
:1007A000411D511D82E0220F331F441F551F8A95A2
:1007B000D1F7B901CA0108959B01AC017FB7F89444
:1007C0008091540390915503A0915603B091570323
:1007D00066B5A89B05C06F3F19F00196A11DB11D1C
:1007E0007FBFBA2FA92F982F8827860F911DA11D93
:1007F000B11D62E0880F991FAA1FBB1F6A95D1F730
:10080000BC012DC0FFB7F89480915403909155031B
:10081000A0915603B0915703E6B5A89B05C0EF3FE2
:1008200019F00196A11DB11DFFBFBA2FA92F982F56
:1008300088278E0F911DA11DB11DE2E0880F991F21
:10084000AA1FBB1FEA95D1F7861B970B885E9340C2
:10085000C8F2215030404040504068517C4F211533
:1008600031054105510571F60895019739F0880F5A
:10087000991F880F991F02970197F1F708957894AF
:1008800084B5826084BD84B5816084BD85B5826095
:1008900085BD85B5816085BDEEE6F0E08081816033
:1008A0008083E1E8F0E01082808182608083808133
:1008B00081608083E0E8F0E0808181608083E1EB0B
:1008C000F0E0808184608083E0EBF0E080818160F3
:1008D0008083E1E9F0E080818260808380818160B3
:1008E0008083E1EAF0E080818260808380818160A2
:1008F0008083E1E2F1E08081826080838081816099
:100900008083E0E9F0E0808181608083E0EAF0E0CC
:10091000808181608083E0E2F1E08081816080837A
:10092000EAE7F0E080818460808380818260808358
:100930008081816080838081806880831092C10083
:100940000895809303020895382F863308F03653B4
:1009500020917B00832F86958695869590E0817007
:10096000907043E0880F991F4A95E1F7277F282B65
:1009700020937B003770809103028295880F880F47
:10098000807C832B80937C0080917A0080648093AC
:100990007A0080917A0086FDFCCF2091780040910A
:1009A0007900942F80E030E0282B392BC90108957D
:1009B0001F93CF93DF93182FEB0161E00E94940502
:1009C000E12FF0E0E154FE4F8491833051F48091A7
:1009D0008000806880938000D0938900C093880055
:1009E0009FC0843051F480918000806280938000A9
:1009F000D0938B00C0938A0093C0813041F420973C
:100A000009F487C084B5806884BDC7BD89C08230C1
:100A100041F4209709F47DC084B5806284BDC8BDCF
:100A20007FC0863041F48091B00080688093B00030
:100A3000C093B30075C0873041F48091B0008062EC
:100A40008093B000C093B4006BC0883051F48091A3
:100A50009000806880939000D0939900C093980094
:100A60005FC0893051F48091900080628093900043
:100A7000D0939B00C0939A0053C08A3051F4809168
:100A80009000886080939000D0939D00C0939C005C
:100A900047C08B3051F48091A00080688093A00003
:100AA000D093A900C093A8003BC084918C3051F42E
:100AB0008091A00080628093A000D093AB00C0938F
:100AC000AA002EC08D3051F48091A00088608093E0
:100AD000A000D093AD00C093AC0022C08E3051F482
:100AE00080912001806880932001D0932901C093D8
:100AF000280116C08F3051F48091200180628093CC
:100B00002001D0932B01C0932A010AC0C038D1051F
:100B10001CF4812F60E002C0812F61E00E94BA05C1
:100B2000DF91CF911F910895482F50E0CA01875857
:100B30009E4FFC0124914D5C5E4FFA018491882305
:100B4000C1F0E82FF0E0EE0FFF1FEB51FF4FA59132
:100B5000B491662341F49FB7F8948C912095822339
:100B60008C939FBF08959FB7F8948C91822B8C93A0
:100B70009FBF0895482F50E0CA0181549E4FFC0149
:100B80002491CA0187589E4FFC0134914D5C5E4F01
:100B9000FA019491992309F47DC0222309F462C0DB
:100BA000233021F4809180008F7705C0243031F408
:100BB000809180008F7D8093800054C0213019F493
:100BC00084B58F7704C0223021F484B58F7D84BD35
:100BD00049C0263021F48091B0008F7705C02730BE
:100BE00031F48091B0008F7D8093B0003BC02830FD
:100BF00021F4809190008F7705C0293031F48091E5
:100C000090008F7D809390002DC02A3021F4809138
:100C10009000877FF7CF2B3021F48091A0008F7751
:100C20000BC02C3021F48091A0008F7D05C02D30A9
:100C300031F48091A000877F8093A00013C02E30F4
:100C400021F4809120018F770BC02F3021F4809107
:100C500020018F7D05C0203129F480912001877FFC
:100C600080932001E92FF0E0EE0FFF1FE150FF4FCE
:100C7000A591B491662341F49FB7F8948C91309577
:100C800083238C939FBF08959FB7F8948C91832BF7
:100C90008C939FBF0895682F70E0CB0181549E4FC5
:100CA000FC012491CB0187589E4FFC0144916D5C5F
:100CB0007E4FFB019491992319F420E030E075C038
:100CC000222309F462C0233021F4809180008F77C1
:100CD00005C0243031F4809180008F7D80938000A6
:100CE00054C0213019F484B58F7704C0223021F428
:100CF00084B58F7D84BD49C0263021F48091B00039
:100D00008F7705C0273031F48091B0008F7D8093BC
:100D1000B0003BC0283021F4809190008F7705C04F
:100D2000293031F4809190008F7D809390002DC008
:100D30002A3021F480919000877FF7CF2B3021F467
:100D40008091A0008F770BC02C3021F48091A000FF
:100D50008F7D05C02D3031F48091A000877F809376
:100D6000A00013C02E3021F4809120018F770BC09A
:100D70002F3021F4809120018F7D05C0203129F48E
:100D800080912001877F80932001892F90E0880F38
:100D9000991F875E9E4FFC01A591B4918C9120E034
:100DA00030E0842311F021E030E0C9010895DF92A2
:100DB000EF92FF920F931F93A82FB0E0CD018758B9
:100DC0009E4FFC01D490AD5CBE4FFD018491662323
:100DD00011F490E001C09D2D6FEFE62E6FEFF62E1F
:100DE0006FEF062F6FE0162FE222F3220423152364
:100DF000682F70E0660F771F675E7E4F20E030E05F
:100E000040E050E0FB01A591B4910AC02E153F05CA
:100E10004007510709F440C02F5F3F4F4F4F5F4FCE
:100E20008C918D21891791F30AC02E153F0540073B
:100E3000510791F12F5F3F4F4F4F5F4F03C0FB01B1
:100E4000A591B4918C918D21891779F720E030E03C
:100E500040E050E0FB01A591B49104C02F5F3F4FEB
:100E60004F4F5F4F8C918D218917C1F3CA01B90192
:100E70002AE030E040E050E00E942C249B01AC01CD
:100E8000205F3F4F4F4F5F4F84E056954795379512
:100E900027958A95D1F704C020E030E040E050E08B
:100EA000B901CA011F910F91FF90EF90DF90089553
:100EB000BF92CF92DF92EF92FF920F931F93CF9347
:100EC000DF93E82EF62EB42EC7E0D0E0022F10E01C
:100ED00087E0C82ED12CBB2059F4B6016C1B7D0BCA
:100EE000C80102C0959587956A95E2F7BC0107C0D5
:100EF000B8010C2E02C0759567950A94E2F76170EF
:100F00008E2D0E94BA058F2D61E00E94BA058F2DAB
:100F100060E00E94BA0521979FEFCF3FD907D9F62D
:100F2000DF91CF911F910F91FF90EF90DF90CF90C5
:100F3000BF900895CF92DF92EF92FF920F931F938D
:100F4000CF93DF93F82E062FE42E10E0C7E0D0E019
:100F500097E0C92ED12C802F61E00E94BA05EE20C7
:100F600061F48F2D0E944B0696012C1B3D0B02C095
:100F7000880F991F2A95E2F709C08F2D0E944B0612
:100F80000C2E02C0880F991F0A94E2F7182B802FAD
:100F900060E00E94BA0521978FEFCF3FD807D9F6BE
:100FA000812FDF91CF911F910F91FF90EF90DF90F4
:100FB000CF900895EF92FF920F931F937B018C01C6
:100FC00020E030E040E05FE40E94560B88238CF084
:100FD000C801B70120E030E040E05FE40E94520920
:100FE0000E94140C9B01AC012050304040405048FE
:100FF00006C0C801B7010E94140C9B01AC01B901E5
:10100000CA011F910F91FF90EF900895A0E0B0E00A
:10101000ECE0F8E00C94AF24DC012B01FA019C9188
:10102000923008F439C1EB018881823008F433C171
:10103000943069F4843009F02FC111969C91119776
:101040008981981709F428C1A4E0B2E025C1843051
:1010500009F421C18230A9F4923009F01DC19A012E
:10106000AD0188E0EA010990AE01E90109929E0113
:101070008150C1F7E201898111969C918923818376
:1010800008C1923009F407C112962D903C90139735
:10109000EB018A819B811496AD90BD90CD90DC9040
:1010A0001797EC80FD800E811F819101281B390B61
:1010B000B90137FF04C066277727621B730B6032C4
:1010C00071050CF061C0121613066CF5370148016A
:1010D000062E04C096948794779467940A94D2F766
:1010E00021E030E040E050E004C0220F331F441FF5
:1010F000551F6A95D2F721503040404050402E2174
:101100003F2140235123211531054105510521F08F
:1011100021E030E040E050E079018A01E628F7283C
:10112000082919293CC0232BD1F1260E371E350181
:101130004601062E04C096948794779467940A9487
:10114000D2F721E030E040E050E004C0220F331F2E
:10115000441F551F6A95D2F72150304040405040FF
:101160002A213B214C215D212115310541055105E5
:1011700021F021E030E040E050E059016A01A6286A
:10118000B728C828D9280BC0821593052CF01C015C
:10119000AA24BB24650103C0EE24FF248701119615
:1011A0009C91D20111968C91981709F445C099230E
:1011B00039F0A80197012A193B094C095D0906C0BD
:1011C000A60195012E193F09400B510B57FD08C090
:1011D00011823382228224833583468357831DC044
:1011E00081E081833382228288279927DC01821B58
:1011F000930BA40BB50B84839583A683B7830DC093
:10120000220F331F441F551F248335834683578382
:1012100082819381019793838283248135814681E2
:101220005781DA01C9010197A109B1098F5F9F4F69
:10123000AF4FBF4328F30BC0918333822282EA0C65
:10124000FB1C0C1D1D1DE482F5820683178383E0C1
:101250008083248135814681578157FF1AC0C90197
:10126000AA2797FDA095BA2F81709070A070B070DA
:101270005695479537952795822B932BA42BB52B05
:1012800084839583A683B783828193810196938318
:101290008283DF0101C0D201CD01CDB7DEB7E2E12B
:1012A0000C94CB24A0E2B0E0E8E5F9E00C94BB2478
:1012B00069837A838B839C832D833E834F835887F6
:1012C000E9E0EE2EF12CEC0EFD1ECE010196B701E9
:1012D0000E94050E8E010F5E1F4FCE010596B801CC
:1012E0000E94050E8A8991E089278A8BC701B8017F
:1012F000AE01475E5F4F0E9406080E94300DA09627
:10130000E6E00C94D724A0E2B0E0E9E8F9E00C9420
:10131000BB2469837A838B839C832D833E834F8395
:101320005887F9E0EF2EF12CEC0EFD1ECE01019650
:10133000B7010E94050E8E010F5E1F4FCE0105966C
:10134000B8010E94050EC701B801AE01475E5F4FAC
:101350000E9406080E94300DA096E6E00C94D72467
:10136000A0E2B0E0E6EBF9E00C94AF2469837A8365
:101370008B839C832D833E834F835887CE010196B8
:10138000BE01675F7F4F0E94050ECE010596BE012C
:101390006F5E7F4F0E94050E9985923088F0898993
:1013A0008230C8F0943019F4823051F404C0843093
:1013B00029F4923081F484E092E0C6C0923049F47E
:1013C00020E09A858A89981321E02A87CE01099620
:1013D000BBC0823049F420E09A858A89981321E0C5
:1013E0002A8BCE014196B0C02D843E844F8458880C
:1013F0006D887E888F88988CEE24FF248701AA242C
:10140000BB24650140E050E060E070E0E0E0F0E027
:10141000C10181709070892BE9F0E60CF71C081D62
:10142000191D9A01AB012A0D3B1D4C1D5D1D80E06D
:1014300090E0A0E0B0E0E614F7040805190520F4F8
:1014400081E090E0A0E0B0E0BA01A901480F591F87
:101450006A1F7B1FAA0CBB1CCC1CDD1C97FE08C09E
:1014600081E090E0A0E0B0E0A82AB92ACA2ADB2AED
:101470003196E032F10549F0660C771C881C991C06
:101480005694479437942794C3CFFA85EA892B89D9
:101490003C898B859C85280F391F2E5F3F4F17C0D5
:1014A000CA0181709070892B61F016950795F794A9
:1014B000E79480E090E0A0E0B0E8E82AF92A0A2B5F
:1014C0001B2B76956795579547952F5F3F4F77FD77
:1014D000E7CF0CC0440F551F661F771F17FD4160F3
:1014E000EE0CFF1C001F111F21503040403090E0D7
:1014F000590790E0690790E4790760F32B8F3C8FE0
:10150000DB01CA018F779070A070B07080349105B4
:10151000A105B10561F447FD0AC0E114F10401051C
:10152000110529F0405C5F4F6F4F7F4F40781A8E56
:10153000FE1711F081E08A8F4D8F5E8F6F8F78A339
:1015400083E0898FCE0149960E94300DA096E2E19A
:101550000C94CB24A8E1B0E0E0EBFAE00C94B724C3
:1015600069837A838B839C832D833E834F83588743
:10157000B9E0EB2EF12CEC0EFD1ECE010196B70169
:101580000E94050E8E010F5E1F4FCE010596B80119
:101590000E94050E2985223008F47EC03989323038
:1015A00010F4B8017CC08A859A8989278A872430FB
:1015B00011F0223031F4231709F06EC064E072E0BC
:1015C0006EC0343039F41D861E861F86188A1C862C
:1015D0001B8604C0323021F484E08987B7015FC0E4
:1015E0002B853C858B899C89281B390B3C872B8755
:1015F000ED84FE840F851889AD88BE88CF88D88C8D
:10160000EA14FB040C051D0540F4EE0CFF1C001F42
:10161000111F215030403C872B8720E030E040E014
:1016200050E080E090E0A0E0B0E460E070E0EA1418
:10163000FB040C051D0540F0282B392B4A2B5B2B96
:10164000EA18FB080C091D09B695A795979587958B
:10165000EE0CFF1C001F111F6F5F7F4F6F31710574
:1016600031F7DA01C9018F779070A070B0708034C3
:101670009105A105B10561F427FD0AC0E114F1044B
:101680000105110529F0205C3F4F4F4F5F4F207837
:101690002D873E874F87588BBE01675F7F4FCB01F9
:1016A0000E94300D6896EAE00C94D324A8E1B0E0E3
:1016B000ECE5FBE00C94BB2469837A838B839C83E9
:1016C0002D833E834F83588789E0E82EF12CEC0E62
:1016D000FD1ECE010196B7010E94050E8E010F5E20
:1016E0001F4FCE010596B8010E94050E89858230F4
:1016F00040F08989823028F0C701B8010E947D0E30
:1017000001C08FEF6896E6E00C94D724A8E1B0E022
:10171000ECE8FBE00C94BB2469837A838B839C8385
:101720002D833E834F83588789E0E82EF12CEC0E01
:10173000FD1ECE010196B7010E94050E8E010F5EBF
:101740001F4FCE010596B8010E94050E8985823093
:1017500040F08989823028F0C701B8010E947D0ECF
:1017600001C081E06896E6E00C94D724A8E0B0E0E0
:10177000ECEBFBE00C94B8249B01AC0183E0898383
:10178000DA01C9018827B7FD83959927AA27BB27C6
:10179000B82E211531054105510519F482E08983E0
:1017A0003AC08823A9F0203080E0380780E048075D
:1017B00080E8580729F460E070E080E09FEC30C0DA
:1017C000EE24FF248701E21AF30A040B150B02C072
:1017D00079018A018EE1C82ED12CDC82CB82ED8288
:1017E000FE820F831887C801B7010E94E10C0197A0
:1017F0001816190684F4082E04C0EE0CFF1C001FF6
:10180000111F0A94D2F7ED82FE820F831887C81A3F
:10181000D90ADC82CB82BA82CE0101960E94300DB9
:101820002896E9E00C94D424ACE0B0E0EAE1FCE0D6
:101830000C94BF2469837A838B839C83CE010196A9
:10184000BE016B5F7F4F0E94050E8D81823061F17A
:10185000823050F1843021F48E81882351F12EC0E2
:101860002F81388537FD20C06E812F3131051CF066
:101870006623F9F023C08EE190E0821B930B29854B
:101880003A854B855C8504C05695479537952795D5
:101890008A95D2F76623B1F0509540953095219501
:1018A0003F4F4F4F5F4F0EC020E030E040E050E030
:1018B00009C02FEF3FEF4FEF5FE704C020E030E0BB
:1018C00040E050E8B901CA012C96E2E00C94DB2418
:1018D000A8E0B0E0EEE6FCE00C94B7247B018C01BC
:1018E000611571058105910519F482E0898360C055
:1018F00083E089838EE1C82ED12CDC82CB82ED82FD
:10190000FE820F831887C801B7010E94E10CFC0119
:101910003197F7FF3BC0222733272E1B3F0B570180
:101920006801022E04C0D694C794B794A7940A9471
:10193000D2F740E050E060E070E081E090E0A0E0AD
:10194000B0E004C0880F991FAA1FBB1F2A95D2F7C9
:101950000197A109B1098E219F21A023B1230097EE
:10196000A105B10521F041E050E060E070E04A29B6
:101970005B296C297D294D835E836F8378878EE197
:1019800090E08E1B9F0B9C838B8312C0309781F05D
:101990000E2E04C0EE0CFF1C001F111F0A94D2F77C
:1019A000ED82FE820F831887CE1ADF0ADC82CB829B
:1019B0001A82CE0101960E94300D2896EAE00C941E
:1019C000D324EF92FF920F931F937B018C0180E051
:1019D000E81680E0F80681E0080780E0180788F440
:1019E0008FEFE816F1040105110531F028F088E0C9
:1019F00090E0A0E0B0E017C080E090E0A0E0B0E0B0
:101A000012C080E0E81680E0F80680E0080781E078
:101A1000180728F088E190E0A0E0B0E004C080E181
:101A200090E0A0E0B0E020E230E040E050E0281B91
:101A3000390B4A0B5B0B04C016950795F794E79496
:101A40008A95D2F7F701E45FFD4F8081281B3109A9
:101A500041095109C9011F910F91FF90EF9008951D
:101A6000DF92EF92FF920F931F93FC01E480F580C9
:101A700006811781D1808081823048F480E090E037
:101A8000A0E1B0E0E82AF92A0A2B1B2BA5C084307C
:101A900009F49FC0823021F4EE24FF24870105C0A1
:101AA000E114F1040105110519F4E0E0F0E096C03D
:101AB000628173819FEF623879070CF05BC022E886
:101AC0003FEF261B370B2A3131052CF020E030E0A8
:101AD00040E050E02AC0B801A701022E04C076956C
:101AE0006795579547950A94D2F781E090E0A0E07A
:101AF000B0E004C0880F991FAA1FBB1F2A95D2F718
:101B00000197A109B1098E219F21A023B12300973C
:101B1000A105B10521F081E090E0A0E0B0E09A01DC
:101B2000AB01282B392B4A2B5B2BDA01C9018F77AC
:101B30009070A070B07080349105A105B10539F4A2
:101B400027FF09C0205C3F4F4F4F5F4F04C0215C0F
:101B50003F4F4F4F5F4FE0E0F0E02030A0E03A070A
:101B6000A0E04A07A0E45A0710F0E1E0F0E07901B4
:101B70008A0127C06038710564F5FB01E158FF4F09
:101B8000D801C7018F779070A070B0708034910534
:101B9000A105B10539F4E7FE0DC080E490E0A0E0B6
:101BA000B0E004C08FE390E0A0E0B0E0E80EF91EE2
:101BB0000A1F1B1F17FF05C016950795F794E7949A
:101BC000319687E016950795F794E7948A95D1F7B3
:101BD00005C0EE24FF248701EFEFF0E06E2F67953C
:101BE00066276795902F9F77D794DD24D7948E2F03
:101BF0008695492F462B582F5D29B701CA011F91A1
:101C00000F91FF90EF90DF900895FC01DB01408180
:101C100051812281622F6F7770E0221F2227221FBD
:101C20009381892F880F822B282F30E0991F9927C5
:101C3000991F11969C93119721153105A9F541150E
:101C400051056105710511F482E037C082E89FEF0C
:101C500013969C938E9312979A01AB0167E0220F23
:101C6000331F441F551F6A95D1F783E08C930DC035
:101C7000220F331F441F551F12968D919C9113976D
:101C8000019713969C938E931297203080E038072B
:101C900080E0480780E4580758F314962D933D934D
:101CA0004D935C93179708952F3F310579F44115B3
:101CB00051056105710519F484E08C93089564FF62
:101CC00003C081E08C9312C01C9210C02F5730408B
:101CD00013963C932E93129783E08C9387E0440FE6
:101CE000551F661F771F8A95D1F7706414964D9320
:101CF0005D936D937C93179708951F93DC01FB010F
:101D00009C91923008F447C08081823008F443C02F
:101D1000943051F411961C91843099F58181682F8B
:101D200070E0611B71093FC0843021F0923031F4C2
:101D30008230B9F18181882389F12DC011961C91DF
:101D400011978230F1F081811817D9F412962D91F4
:101D50003C911397828193818217930794F02817FF
:101D60003907BCF014968D919D910D90BC91A02DDA
:101D70002481358146815781281739074A075B0737
:101D800018F4112341F00AC082179307A407B5077E
:101D900040F4112319F061E070E005C06FEF7FEFB0
:101DA00002C060E070E0CB011F910895CF93DF93F4
:101DB000BC018230910510F462E070E0A091E6056C
:101DC000B091E705ED01E0E0F0E040E050E021C037
:101DD000888199818617970769F48A819B8130975A
:101DE00019F09383828304C09093E7058093E605FE
:101DF000FE0134C06817790738F44115510519F010
:101E00008417950708F4AC01FE018A819B819C012F
:101E1000E9012097E9F641155105A9F1CA01861B90
:101E2000970B049708F4BA01E0E0F0E02AC08D9126
:101E30009C91119784179507F9F46417750781F43D
:101E400012968D919C911397309719F0938382830A
:101E500004C09093E7058093E605FD0132964FC0DC
:101E6000CA01861B970BFD01E80FF91F619371935F
:101E700002978D939C9343C0FD01828193819C01C5
:101E8000D9011097A1F68091E4059091E505892B81
:101E900041F480910E0390910F039093E505809398
:101EA000E40540911003509111034115510541F48F
:101EB0004DB75EB780910C0390910D03481B590BF1
:101EC0002091E4053091E50524173507B0F4CA01E7
:101ED000821B930B8617970780F0AB014E5F5F4F15
:101EE0008417950750F0420F531F5093E505409318
:101EF000E405F9016193719302C0E0E0F0E0CF01E5
:101F0000DF91CF910895CF93DF93009709F450C0EC
:101F1000EC0122971B821A82A091E605B091E70599
:101F2000109709F140E050E0AC17BD0708F1BB8302
:101F3000AA83FE0121913191E20FF31FAE17BF0773
:101F400079F48D919C911197280F391F2E5F3F4F87
:101F50003983288312968D919C9113979B838A8352
:101F60004115510571F4D093E705C093E60520C0F3
:101F700012968D919C911397AD01009711F0DC01A1
:101F8000D3CFFA01D383C28321913191E20FF31FA2
:101F9000CE17DF0769F488819981280F391F2E5FDA
:101FA0003F4FFA01318320838A819B81938382830F
:101FB000DF91CF910895A0E0B0E0E1EEFFE00C9456
:101FC000B724EC01A880B980CA80DB80A114B104D9
:101FD000C104D10441F484E2A82E89EDB82E8BE52A
:101FE000C82E87E0D82EC601B5012DE133EF41E0C0
:101FF00050E00E94802427EA31E440E050E00E9453
:102000002C247B018C01C601B5012DE133EF41E0A9
:1020100050E00E948024CA01B9012CEE34EF4FEF4A
:102020005FEF0E942C246E0D7F1D801F911F97FF74
:1020300004C06150704080409048688379838A83EF
:102040009B839B01AC015F77B901CA01CDB7DEB7B5
:10205000EAE00C94D3240E94DB0F089582E193E020
:102060000E94DB0F08956093120370931303809313
:102070001403909315030895FB01DC010D900020DB
:10208000E9F7119701900D920020E1F70895FC0106
:102090008191861721F08823D9F7992708953197E0
:1020A000CF010895FB01DC018D9101908019011091
:1020B000D9F3990B0895FB01DC0101900D920020EA
:1020C000E1F70895FB01DC014150504030F08D9163
:1020D0000190801919F40020B9F7881B990B089515
:1020E000FB01DC014150504048F001900D9200206E
:1020F000C9F701C01D9241505040E0F70895FC011E
:1021000081E090E00190061609F4CF010020D1F79C
:1021100001970895FB0151915523A9F0BF01DC01FE
:102120004D9145174111E1F759F4CD01019000207F
:1021300049F04D9140154111C9F3FB014111EFCF19
:1021400081E090E001970895FB019F01E8944230FF
:10215000C4F04532B4F44A3029F497FB1EF490954C
:1021600081959F4F642F77270E949B24805D8A333F
:102170000CF0895D8193CB010097A1F716F45DE225
:1021800051931082C9010C941E11FA01CF93FF9351
:10219000EF93223044F1253234F5C22FE894CA304F
:1021A00049F497FB3EF490958095709561957F4F2B
:1021B0008F4F9F4F2C2F332744275527FF93EF93A3
:1021C0000E945E24EF91FF91605D6A330CF0695DBF
:1021D0006193B901CA01605070408040904051F74E
:1021E00016F4CDE2C19310828F919F91CF910C9400
:1021F0001E11FA01CF93FF93EF932230CCF02532DA
:10220000BCF4C22F2C2F332744275527FF93EF937D
:102210000E945E24EF91FF91605D6A330CF0695D6E
:102220006193B901CA01605070408040904051F7FD
:1022300010828F919F91CF910C941E11DC01FC01B3
:10224000672F71917723E1F7329704C07C916D93EA
:1022500070836291AE17BF07C8F30895F894FFCF5B
:102260000E943F048DE061E00E9494058DE061E0F2
:102270000E94BA0568EE73E080E090E00E94DC0303
:102280008DE060E00E94BA0568EE73E080E090E0C7
:102290000E94DC03EBCF1F920F920FB60F920BB68A
:1022A0000F9211242F933F934F935F936F937F93DC
:1022B0008F939F93AF93BF93EF93FF934091C6008B
:1022C000E091DD03F091DE03CF01019660E870E05C
:1022D0000E944B249C018091DF039091E00328171A
:1022E000390739F0E35AFC4F40833093DE032093E3
:1022F000DD03FF91EF91BF91AF919F918F917F91FE
:102300006F915F914F913F912F910F900BBE0F9066
:102310000FBE0F901F9018951F920F920FB60F923D
:102320000BB60F9211242F933F934F935F936F93AC
:102330007F938F939F93AF93BF93EF93FF934091BE
:10234000CE00E0916104F0916204CF01019660E853
:1023500070E00E944B249C0180916304909164047E
:102360002817390739F0EF51FC4F4083309362044E
:1023700020936104FF91EF91BF91AF919F918F9155
:102380007F916F915F914F913F912F910F900BBE75
:102390000F900FBE0F901F9018951F920F920FB6BF
:1023A0000F920BB60F9211242F933F934F935F938D
:1023B0006F937F938F939F93AF93BF93EF93FF930D
:1023C0004091D600E091E504F091E604CF0101963A
:1023D00060E870E00E944B249C018091E70490919A
:1023E000E8042817390739F0EB59FB4F4083309345
:1023F000E6042093E504FF91EF91BF91AF919F9187
:102400008F917F916F915F914F913F912F910F909D
:102410000BBE0F900FBE0F901F9018951F920F923A
:102420000FB60F920BB60F9211242F933F934F9339
:102430005F936F937F938F939F93AF93BF93EF932C
:10244000FF9340913601E0916905F0916A05CF0153
:10245000019660E870E00E944B249C0180916B051E
:1024600090916C052817390739F0E751FB4F4083ED
:1024700030936A0520936905FF91EF91BF91AF9169
:102480009F918F917F916F915F914F913F912F918C
:102490000F900BBE0F900FBE0F901F9018958F924C
:1024A000AF92CF92DF92EF92FF920F931F93DF9341
:1024B000CF93CDB7DEB7FC018BE193E091838083AE
:1024C0007383628355834483378326831187008710
:1024D000F386E286D586C486A68687868D85808B20
:1024E0008E85818B8F85828BCF91DF911F910F918C
:1024F000FF90EF90DF90CF90AF908F9008958F92E4
:10250000AF92CF92DF92EF92FF920F931F93DF93E0
:10251000CF93CDB7DEB7FC018BE193E0918380834D
:1025200073836283558344833783268311870087AF
:10253000F386E286D586C486A68687868D85808BBF
:102540008E85818B8F85828BCF91DF911F910F912B
:10255000FF90EF90DF90CF90AF908F9008955F92B3
:102560006F927F928F929F92AF92BF92CF92DF92A3
:10257000EF92FF920F931F93CF93DF93EC015A01D9
:102580006B0181E4A81682E4B8068FE0C80680E0FB
:10259000D80608F077C060E874E88EE190E0A60104
:1025A00095010E945E2439014A010894610871086E
:1025B000810891089694879477946794A401930175
:1025C0002F5F3F4F4F4F5F4F74E0220F331F441F69
:1025D000551F7A95D1F760E074E284EF90E00E9495
:1025E0005E24CA01B9012FEF30E040E050E00E94C4
:1025F0002C24A60195010E945E248FEF90E0821B9F
:10260000930B181619061CF4522E509402C0522E29
:10261000539460E079E08DE390E0A60195010E947B
:102620005E242150304040405040569547953795A4
:1026300027952F5F3F4F4F4F5F4F93E0220F331F80
:10264000441F551F9A95D1F760E074E284EF90E043
:102650000E945E24CA01B9012FEF30E040E050E053
:102660000E942C24A60195010E945E248FEF90E029
:10267000821B930B1816190614F4209501C02F5FC6
:102680002515F0F4E885F98581E090E00A8802C01C
:10269000880F991F0A94E2F7808360E079E08DE368
:1026A00090E0A60195010E945E24215030404040F8
:1026B00050405695479537952795822F232F05C073
:1026C000E885F9851082862D272DEC81FD812083F8
:1026D000EE81FF818083EA85FB85208141E050E027
:1026E000CA010E8402C0880F991F0A94E2F7282BB2
:1026F0002083EA85FB852081CA010F8402C0880FF0
:10270000991F0A94E2F7282B2083EA85FB858081B4
:10271000088802C0440F551F0A94E2F7842B808377
:10272000DF91CF911F910F91FF90EF90DF90CF90AD
:10273000BF90AF909F908F907F906F905F90089523
:10274000FC01A285B3854C9121E030E0C9010684EB
:1027500002C0880F991F0A94E2F7809584238C9316
:10276000A285B3854C91C901078402C0880F991FC7
:102770000A94E2F7809584238C93A285B3858C918B
:10278000008802C0220F331F0A94E2F72095282305
:102790002C930895DC011296ED91FC911397E0586B
:1027A000FF4F8191919180589F4F20813181821BF1
:1027B000930B60E870E00E944B240895DC011296B0
:1027C000ED91FC911397EE57FF4F2081318192914B
:1027D0008291E058F0408217930719F42FEF3FEFF2
:1027E00005C0E20FF31F8081282F30E0C901089552
:1027F000CF93DF93DC011296ED91FC911397EF01DB
:10280000CE57DF4F48815981E058FF4F8081918139
:10281000E058F0408417950719F42FEF3FEF0CC0F4
:10282000E40FF51F2081CA01019660E870E00E9464
:102830004B249983888330E0C901DF91CF910895BB
:10284000DC011296ED91FC911397EE57FF4F8081BA
:102850009181929382930895FC01A085B18521898D
:102860008C9190E0022E02C0959587950A94E2F72C
:1028700080FFF6CF0484F585E02D608308952BE179
:1028800033E030936E0520936D058DE593E09093D2
:10289000700580936F0585EC90E0909372058093AE
:1028A000710584EC90E0909374058093730580EC3F
:1028B00090E0909376058093750581EC90E090937D
:1028C00078058093770586EC90E090937A05809365
:1028D0007905E4E0E0937B0573E070937C0567E0A5
:1028E00060937D0555E050937E0541E040937F0560
:1028F000309381052093800581EE93E090938305CA
:10290000809382058DEC90E09093850580938405FB
:102910008CEC90E0909387058093860588EC90E09E
:10292000909389058093880589EC90E090938B05BE
:1029300080938A058EEC90E090938D0580938C05B2
:10294000E0938E0570938F056093900550939105E9
:1029500040939205309394052093930585E694E087
:10296000909396058093950585ED90E0909398055A
:102970008093970584ED90E090939A058093990554
:1029800080ED90E090939C0580939B0581ED90E015
:1029900090939E0580939D0586ED90E09093A00511
:1029A00080939F05E093A1057093A2056093A30512
:1029B0005093A4054093A5053093A7052093A60541
:1029C00089EE94E09093A9058093A80585E391E0B2
:1029D0009093AB058093AA0584E391E09093AD05B5
:1029E0008093AC0580E391E09093AF058093AE05B2
:1029F00081E391E09093B1058093B00586E391E087
:102A00009093B3058093B205E093B4057093B50538
:102A10006093B6055093B7054093B80508950F939A
:102A20001F93CF93DF938C01EB0109C02196D8014E
:102A3000ED91FC910190F081E02DC801099568812C
:102A40006623A1F7DF91CF911F910F910895EF9227
:102A5000FF920F931F93CF93DF938C017B01EA01C9
:102A60000CC0D7016D917D01D801ED91FC910190D1
:102A7000F081E02DC80109952197209791F7DF910A
:102A8000CF911F910F91FF90EF900895DC01ED9190
:102A9000FC910280F381E02D09950895CF92DF9299
:102AA000EF92FF920F931F93CF93DF936C017B0103
:102AB000C0E0D0E00EC0D601ED91FC910081118103
:102AC000C701BE010E94551C682FC601F801099577
:102AD0002196F70184819581C817D90760F3DF91AA
:102AE000CF911F910F91FF90EF90DF90CF900895BD
:102AF0002F923F924F925F926F927F928F929F920E
:102B0000AF92BF92CF92DF92EF92FF920F931F93FB
:102B1000DF93CF93CDB7DEB7A0970FB6F894DEBFA3
:102B20000FBECDBF1C016A017B0141155105610536
:102B3000710549F440E350E060E070E020E030E0EF
:102B40000E94421654C0882499245401422E5524D0
:102B50006624772401E010E00C0F1D1F080D191DDD
:102B6000C701B601A30192010E945E24F8016083AF
:102B70000894811C911CA11CB11CC701B601A301C2
:102B800092010E945E24C901DA016C017D01C11429
:102B9000D104E104F104F1F681E0E82EF12CEC0E11
:102BA000FD1EE80CF91C3E010894611C711CD50146
:102BB000C4010197A109B1096C01C818D90814C052
:102BC000F601EE0DFF1D40814A3010F4405D01C05A
:102BD000495C50E060E070E0C10120E030E00E941C
:102BE00042160894E108F1086E147F0449F7A09694
:102BF0000FB6F894DEBF0FBECDBFCF91DF911F910E
:102C00000F91FF90EF90DF90CF90BF90AF909F908B
:102C10008F907F906F905F904F903F902F9008958E
:102C2000DC012115310541F4ED91FC910190F08119
:102C3000E02D642F099508950E9478150895EF926C
:102C4000FF920F931F939A017B0100E010E0B801FF
:102C5000A7010E9410161F910F91FF90EF90089509
:102C6000EF92FF920F931F939A01E62EFF2400E04C
:102C700010E0B801A7010E9410161F910F91FF905C
:102C8000EF900895EF92FF920F931F93CF93DF93EE
:102C9000EC017A018B012115310541F4E881F981BC
:102CA0000190F081E02D642F09951BC02A30310579
:102CB000B1F477FF10C04DE250E060E070E020E03A
:102CC00030E00E94421610950095F094E094E11CCB
:102CD000F11C011D111DCE01B801A7012AE00E94BF
:102CE0007815DF91CF911F910F91FF90EF9008958C
:102CF000EF92FF920F931F937B019A010027F7FC3D
:102D00000095102FB801A7010E9442161F910F9144
:102D1000FF90EF900895EF92FF920F931F939A0107
:102D2000E62EFF2400E010E0B801A7010E94421641
:102D30001F910F91FF90EF9008950F931F938C01B7
:102D40004DE050E060E070E020E030E00E9442168C
:102D5000C8014AE050E060E070E020E030E00E940E
:102D600042161F910F9108950F931F938C010E949B
:102D70001016C8010E949D161F910F910895CF92C1
:102D8000DF92EF92FF920F931F938C019A016B01D8
:102D9000EE24FF24B701A6010E941016C8010E946C
:102DA0009D161F910F91FF90EF90DF90CF900895A7
:102DB000CF92DF92EF92FF920F931F938C019A01B3
:102DC000C62EDD24EE24FF24B701A6010E941016B2
:102DD000C8010E949D161F910F91FF90EF90DF9008
:102DE000CF9008950F931F938C010E944615C80140
:102DF0000E949D161F910F9108950F931F938C01B0
:102E00000E944E15C8010E949D161F910F910895B2
:102E10000F931F938C010E944216C8010E949D16B9
:102E20001F910F910895CF92DF92EF92FF920F932F
:102E30001F938C016B019A01EE24D7FCE094FE2CC9
:102E4000B701A6010E944216C8010E949D161F915B
:102E50000F91FF90EF90DF90CF900895CF92DF9287
:102E6000EF92FF920F931F938C019A01C62EDD24DF
:102E7000EE24FF24B701A6010E944216C8010E9459
:102E80009D161F910F91FF90EF90DF90CF900895C6
:102E90009F92AF92BF92CF92DF92EF92FF920F93E9
:102EA0001F93CF93DF93EC017A018B01922ECB011C
:102EB000BA0120E030E040E050E00E94860B882319
:102EC0006CF4CE014DE250E060E070E020E030E0D4
:102ED0000E94421617FB109517F9109520E030E07C
:102EE00040E05FE3AA240BC0CA01B90120E030E052
:102EF00040E251E40E94AA0A9B01AC01A394A914E8
:102F000098F3C801B7010E9483095B016C010E941C
:102F1000DA077B018C01CE01B801A7012AE030E07D
:102F20000E941016992029F0CE0160E072E00E9404
:102F30004615C801B7010E94680C9B01AC01C6018F
:102F4000B5010E94520922C020E030E040E251E485
:102F50000E94B0097B018C010E94140C5B016C0182
:102F6000CC24B7FCC094DC2CCE01B601A5012AE02C
:102F700030E00E944216C601B5010E94B60B9B01CB
:102F8000AC01C801B7010E9452099A949920E1F658
:102F9000DF91CF911F910F91FF90EF90DF90CF9035
:102FA000BF90AF909F9008950E94481708950F9387
:102FB0001F938C010E944817C8010E949D161F9103
:102FC0000F9108958230B9F0833028F4882351F0AE
:102FD000813051F50AC0843011F18430E8F0853039
:102FE00019F520C010926E00089580916F008D7FBA
:102FF00080936F000895809170008D7F80937000A2
:1030000081E08093B0008091B100887F84608093DC
:10301000B1001092B30008951092710008951092BB
:10302000720008951092730008951F920F920FB6C8
:103030000F920BB60F9211242F933F934F935F93F0
:103040006F937F938F939F93AF93BF93EF93FF9370
:103050008091C7059091C805A091C905B091CA0596
:103060000097A105B10551F1E091CB05F091CC0598
:1030700080819091CD05892780838091C7059091AB
:10308000C805A091C905B091CA05181619061A06F7
:103090001B060CF58091C7059091C805A091C90544
:1030A000B091CA050197A109B1098093C705909312
:1030B000C805A093C905B093CA050DC082E00E945F
:1030C000E217E091CB05F091CC0590818091CD0580
:1030D000809589238083FF91EF91BF91AF919F915C
:1030E0008F917F916F915F914F913F912F910F90B1
:1030F0000BBE0F900FBE0F901F9018951F93182FA7
:1031000080911603811711F09FEF06C0E4EEF0E006
:1031100094918FEF80931603892F0E94E217812FDD
:1031200060E00E94BA051F9108952F923F925F922E
:103130006F927F928F929F92AF92BF92CF92DF92C7
:10314000EF92FF920F931F93DF93CF9300D000D0A5
:10315000CDB7DEB7A82F1B0129833A834B835C834D
:10316000809116038A1721F4E4EEF0E0549003C135
:103170008F3F09F0BDC2A0931603E4EEF0E0549037
:103180002FEF521609F4B4C282E0581609F45BC05E
:1031900085153CF0552089F091E0591609F0EBC0F7
:1031A0002CC0B4E05B1609F49AC05B160CF471C035
:1031B000E5E05E1609F0DFC0B8C014BC15BC84B5EC
:1031C000826084BD85B5816085BD2A2F30E0F9011C
:1031D000ED5CFE4FE491F0E0EE0FFF1FE150FF4F7A
:1031E000859194919093BE058093BD0527583E4FDD
:1031F000F90184918093BF05C0C0109280001092A5
:10320000810080918100886080938100809181009D
:103210008160809381002A2F30E0F901ED5CFE4F40
:10322000E491F0E0EE0FFF1FE150FF4F8591949184
:103230009093C5058093C40527583E4FF9018491AA
:103240008093C6059AC01092B0001092B100809190
:10325000B00082608093B0008091B1008160809363
:10326000B1002A2F30E0F901ED5CFE4FE491F0E06F
:10327000EE0FFF1FE150FF4F859194919093CC0585
:103280008093CB0527583E4FF90184918093CD055B
:1032900074C010929000109291008091910088600B
:1032A00080939100809191008160809391002A2FFA
:1032B00030E0F901ED5CFE4FE491F0E0EE0FFF1F0E
:1032C000E150FF4F859194919093D3058093D2055F
:1032D00027583E4FF90184918093D4054EC0109237
:1032E000A0001092A1008091A10088608093A100AD
:1032F0008091A10081608093A1002A2F30E0F90124
:10330000ED5CFE4FE491F0E0EE0FFF1FE150FF4F48
:10331000859194919093DA058093D90527583E4F73
:10332000F90184918093DB0528C01092200110924E
:1033300021018091210188608093210180912101E8
:103340008160809321012A2F30E0F901ED5CFE4F6E
:10335000E491F0E0EE0FFF1FE150FF4F8591949153
:103360009093E1058093E00527583E4FF901849141
:103370008093E20502C057FCBBC18A2F61E00E9426
:103380009405552021F0F2E05F1609F0BDC031012F
:103390008824992460E072E18AE790E0A401930117
:1033A0000E945E2459016A01860175010894E108B2
:1033B000F108010911092FEFE216F10401051105C9
:1033C00009F008F498C060E472E48FE090E0A40192
:1033D00093010E945E2479018A010894E108F108B2
:1033E0000109110982E05816C1F49FEFE916F104B2
:1033F0000105110509F008F483C060E970ED83E070
:1034000090E0A40193010E945E2479018A0108944E
:10341000E108F1080109110983E0AFEFEA16F104B0
:103420000105110509F008F467C068E478EE81E051
:1034300090E0A40193010E945E2479018A0108941E
:10344000E108F10801091109552011F483E01DC0BC
:10345000B2E05B1611F084E018C0EFEFEE16F10455
:103460000105110509F008F441C164E274EF80E040
:1034700090E0A40193010E945E2479018A010894DE
:10348000E108F1080109110985E0FFEFEF16F104E9
:103490000105110589F180F162E17AE780E090E0B1
:1034A000A40193010E945E2479018A010894E10835
:1034B000F10801091109552011F086E001C084E0EE
:1034C0002FEFE216F10401051105B1F0A8F0860115
:1034D00075019AE016950795F794E7949A95D1F7B8
:1034E0000894E108F10801091109552011F087E05D
:1034F00008C085E003C081E0552019F485BD58C09F
:1035000082E08093B10054C05101CC24DD2460E0FE
:1035100072E18AE790E0A60195010E945E2479019C
:103520008A010894E108F1080109110980E0E81610
:1035300080E0F80681E0080780E0180710F491E0C9
:1035400010C068E478EE81E090E0A60195010E9449
:103550005E2479018A010894E108F1080109110942
:1035600093E0A1E05A1639F480918100887F982B6E
:10357000909381001DC0B3E05B1639F480919100F7
:10358000887F982B9093910013C0E4E05E1639F485
:103590008091A100887F982B9093A10009C0F5E04D
:1035A0005F1631F480912101887F982B909321013F
:1035B00089819A81AB81BC810097A105B10529F46D
:1035C0008FEF9FEFAFEFBFEF13C0220C331CB101A1
:1035D00080E090E029813A814B815C810E942C241B
:1035E00028EE33E040E050E00E945E24C901DA0199
:1035F000E2E05E16A9F1E5153CF0552081F0F1E01E
:103600005F1609F075C01AC024E0521609F44AC0CA
:103610005216B4F1E5E05E1609F06AC055C0E7BC89
:103620008093B9059093BA05A093BB05B093BC05F0
:1036300080916E00826080936E005AC0F092890083
:10364000E09288008093C0059093C105A093C205C5
:10365000B093C30580916F00826080936F0048C073
:10366000E092B3008093C7059093C805A093C90565
:10367000B093CA058091700082608093700038C05A
:10368000F0929900E09298008093CE059093CF0538
:10369000A093D005B093D105809171008260809392
:1036A000710026C0F092A900E092A8008093D50591
:1036B0009093D605A093D705B093D805809172005A
:1036C00082608093720014C0F0922901E092280178
:1036D0008093DC059093DD05A093DE05B093DF05B4
:1036E0008091730082608093730002C084E009CFF0
:1036F0000F900F900F900F90CF91DF911F910F912E
:10370000FF90EF90DF90CF90BF90AF909F908F9001
:103710007F906F905F903F902F9008952F923F92EF
:103720004F925F926F927F928F929F92AF92BF92D1
:10373000CF92DF92EF92FF920F931F93DF93CF937D
:10374000CDB7DEB73B014C0119012A016D897E8995
:103750008F89988D6A197B098C099D09621A730AF1
:10376000840A950AA40193010E942C24E218F3080C
:1037700004091509A80197010E9480242A0D3B1D08
:103780004C1D5D1DB901CA01CF91DF911F910F91B1
:10379000FF90EF90DF90CF90BF90AF909F908F9071
:1037A0007F906F905F904F903F902F900895089575
:1037B00070E0382F20E0622B732BCB010895EF923D
:1037C000FF920F931F937B018C0161157105810599
:1037D000910529F420E030E040E050E00BC00E9469
:1037E0002E10A80197010E948024AC01CB01DA01C0
:1037F0009C01AD01B901CA011F910F91FF90EF909B
:103800000895EF92FF920F931F937B018C01621733
:1038100073078407950764F4261B370B480B590B75
:10382000CA01B9010E94DF1BE60EF71E081F191F0F
:10383000B701C8011F910F91FF90EF900895009775
:1038400029F0BC0180E090E00E9433100895FC0153
:103850000190F081E02DE60FF71F80810895DC01D3
:10386000ED91FC911197309751F014968D919C91A8
:1038700015976817790718F4E60FF71F4083089526
:10388000FC019B01848195816817790728F4608188
:1038900071816115710529F41092E30563EE75E0FD
:1038A00002C0620F731FCB010895FC010190F081EB
:1038B000E02DE60FF71F808108950F931F93CF939C
:1038C000DF93FC018B0141155105A1F061157105D4
:1038D00089F084819581EA0121978C179D0708F46E
:1038E000EC0160817181C801AE010E947010C00FAF
:1038F000D11F1882DF91CF911F910F9108950F93DF
:103900001F93CF93DF93FC018B0141155105A1F06B
:103910006115710589F084819581EA0121978C17E1
:103920009D0708F4EC0160817181C801AE010E941D
:103930007010C00FD11F1882DF91CF911F910F918E
:1039400008950F931F938C01FC01808191810E9447
:10395000830FF80113821282158214821F910F9136
:103960000895FC01DB0114962D913C9115978481FB
:103970009581821B930B8417950710F480E00895BE
:10398000808191816D917C91840F951FA9010E9486
:1039900062109C0180E0232B09F481E00895FC0172
:1039A000DB012481358114968D919C911597281700
:1039B000390710F480E00895CF0140E050E00E9404
:1039C000B11C0895DF92EF92FF920F931F93CF9354
:1039D000DF93EC018C819D8148175907B8F47A0177
:1039E0000894E11CF11CE881F981EE0DFF1DD080E7
:1039F000108208811981C80170E00E947F109C012B
:103A00000E0D1F1DF801D082009719F4EFEFFFEFA4
:103A100005C088819981F901E81BF90BCF01DF917D
:103A2000CF911F910F91FF90EF90DF900895FC01CF
:103A300044815581415050400E94E21C0895CF932B
:103A4000DF93FC01DB01848195814817590760F4FD
:103A5000C081D1816D917C91CE01840F951F0E9410
:103A60008A109C01009719F42FEF3FEF02C02C1B26
:103A70003D0BC901DF91CF91089540E050E00E94D5
:103A80001F1D0895CF93DF93FC0184819581481712
:103A9000590758F4C081D181CE01840F951F70E081
:103AA0000E9447109C01009719F42FEF3FEF02C0CE
:103AB0002C1B3D0BC901DF91CF91089540E050E0F0
:103AC0000E94421D0895DC01FB0114962D913C914A
:103AD0001597848195812817390711F080E00895A2
:103AE000608171818D919C910E9452109C0180E0B7
:103AF000232B09F481E00895FC01DB012481358149
:103B000014968D919C9115972817390710F480E031
:103B10000895281B390B808191816D917C91820FD2
:103B2000931F0E9452109C0180E0232B09F481E036
:103B30000895DC01FB01608171818D919C910E944F
:103B40005210292F332727FD3095209530952227B5
:103B5000330F221F3327C9010895DC01FB01608167
:103B600071818D919C910E94521040E050E0181696
:103B7000190614F041E050E0CA010895DC01FB0190
:103B8000608171818D919C910E94521040E050E0C3
:103B90001816190614F441E050E0CA010895DC013A
:103BA000FB01608171818D919C910E945210292F9F
:103BB000332727FD30952227330F221F3327C901D2
:103BC0000895DC01FB0114962D913C911597848199
:103BD00095812817390751F4608171818D919C91ED
:103BE0000E9452109C0180E0232B09F081E090E0BC
:103BF0000895DC01FB0114962D913C911597848169
:103C000095812817390711F080E00BC06081718120
:103C10008D919C910E9452109C0180E0232B09F40D
:103C200081E090E00895FC01DB016D917C91808141
:103C300091810E9452100895CF93DF93EC01CB0144
:103C40007B836A8301960E94D60E998388830097AE
:103C500021F41B821A821D821C82DF91CF9108956C
:103C6000EF92FF920F931F93CF93DF93EC017B01B1
:103C7000FB01648175818C819D81680F791F7D8333
:103C80006C838A819B818617970778F40881198154
:103C9000CE010E941C1E88819981009719F0B801FD
:103CA0000E945B10C8010E94830F88819981009750
:103CB00029F0F701608171810E943C10CE01DF91F3
:103CC000CF911F910F91FF90EF9008950E94301EA9
:103CD00008950F931F93CF93DF93EC018B01861709
:103CE000970709F1FB01248135818C819D81821721
:103CF000930750F4888199810E94830FF8016481B1
:103D00007581CE010E941C1E288139812115310543
:103D100051F0F801848195819D838C83608171814C
:103D2000C9010E945B10CE01DF91CF911F910F91CD
:103D300008951F93CF93DF93EC01162F81E090E05D
:103D40009D838C83CE0161E070E00E941C1EE8819F
:103D5000F981309721F01083E881F9811182DF9198
:103D6000CF911F9108951F93CF93DF93EC01162FEE
:103D700081E090E09D838C83CE0161E070E00E9441
:103D80001C1EE881F981309721F01083E881F981C8
:103D90001182DF91CF911F9108951F93CF93DF93ED
:103DA000EC01162F81E090E09D838C83CE0161E0D1
:103DB00070E00E941C1EE881F981309721F0108389
:103DC000E881F9811182DF91CF911F9108951F93AE
:103DD000CF93DF93EC01162F81E090E09D838C83DD
:103DE000CE0161E070E00E941C1EE881F9813097ED
:103DF00021F01083E881F9811182DF91CF911F9129
:103E000008950F931F93CF93DF938C01EB016C8187
:103E10007D81FC01758364830E941C1EF8018081F2
:103E20009181009721F0688179810E945B10DF9178
:103E3000CF911F910F9108950F931F93CF93DF930D
:103E40008C01EB016C817D81FC01758364830E9490
:103E50001C1EF80180819181009721F06881798191
:103E60000E945B10DF91CF911F910F910895EF9207
:103E7000FF920F931F93DF93CF93CDB7DEB7A19738
:103E80000FB6F894DEBF0FBECDBF8C01CB01BA01D7
:103E90007E010894E11CF11CA7012AE030E00E9499
:103EA000F910F70101900020E9F73197EE19FF09A9
:103EB000D8011596FC93EE931497C801BF010E9498
:103EC0001C1EF80180819181009719F0B7010E94B2
:103ED0005B10A1960FB6F894DEBF0FBECDBFCF9199
:103EE000DF911F910F91FF90EF900895EF92FF9255
:103EF0000F931F93DF93CF93CDB7DEB7A1970FB684
:103F0000F894DEBF0FBECDBF8C01CB01BA017E019C
:103F10000894E11CF11CA7012AE030E00E94F9108E
:103F2000F70101900020E9F73197EE19FF09D80158
:103F30001596FC93EE931497C801BF010E941C1EB6
:103F4000F80180819181009719F0B7010E945B1000
:103F5000A1960FB6F894DEBF0FBECDBFCF91DF9113
:103F60001F910F91FF90EF900895EF92FF920F93A2
:103F70001F93DF93CF93CDB7DEB7A1970FB6F89419
:103F8000DEBF0FBECDBF8C019A0180E090E07E01C4
:103F90000894E11CF11CA7010E94F910F70101909F
:103FA0000020E9F73197EE19FF09D8011596FC9327
:103FB000EE931497C801BF010E941C1EF801808176
:103FC0009181009719F0B7010E945B10A1960FB67E
:103FD000F894DEBF0FBECDBFCF91DF911F910F913F
:103FE000FF90EF900895EF92FF920F931F93DF934E
:103FF000CF93CDB7DEB7A1970FB6F894DEBF0FBE53
:10400000CDBF8C019A0180E090E07E010894E11C14
:10401000F11CA7010E94F910F70101900020E9F7B7
:104020003197EE19FF09D8011596FC93EE9314977A
:10403000C801BF010E941C1EF80180819181009778
:1040400019F0B7010E945B10A1960FB6F894DEBF7D
:104050000FBECDBFCF91DF911F910F91FF90EF90D9
:1040600008950F931F93CF93DF938C01EB0161159C
:10407000710511F4C2E0D2E0FE0101900020E9F7E1
:104080003197EC1BFD0BD8011596FC93EE9314971A
:10409000C801BF010E941C1EF80180819181009718
:1040A00019F0BE010E945B10DF91CF911F910F911B
:1040B0000895AF92BF92CF92DF92EF92FF920F934B
:1040C0001F93CF93DF93B82EA92E6B01C82FD92F42
:1040D000FB0160817181CE010E943120EE24FF241A
:1040E0000EC0088119810E0D1F1DF801808190E01E
:1040F0000E94FC24F80180830894E11CF11CF60165
:1041000084819581E816F90660F38B2D9A2DDF9155
:10411000CF911F910F91FF90EF90DF90CF90BF90C4
:10412000AF900895AF92BF92CF92DF92EF92FF923D
:104130000F931F93CF93DF93B82EA92E6B01C82F37
:10414000D92FFB0160817181CE010E943120EE24C4
:10415000FF240EC0088119810E0D1F1DF8018081FA
:1041600090E00E94F424F80180830894E11CF11C83
:10417000F60184819581E816F90660F38B2D9A2D5E
:10418000DF91CF911F910F91FF90EF90DF90CF9033
:10419000BF90AF900895EF92FF920F931F93DF931C
:1041A000CF93CDB7DEB72C970FB6F894DEBF0FBE16
:1041B000CDBFFC017B018617970711F401E029C0F0
:1041C00024813581DB0114968D919C9115972817D8
:1041D000390711F000E01DC0CE010196BF010E9419
:1041E000922009811A81CE010796B7010E94922080
:1041F0006F817885C8010E94521000E0009709F491
:1042000001E0CE0107960E94A11CCE0101960E94FA
:10421000A11C802F2C960FB6F894DEBF0FBECDBF29
:10422000CF91DF911F910F91FF90EF900895CF9262
:10423000DF92EF92FF921F93CF93DF936C017B018C
:10424000B9012417350710F4BA01A901D701149652
:104250008D919C911597EB018617970708F4EC0157
:10426000D701ED91FC911197EC0FFD1F1081108289
:104270006D917C91640F751FC6010E943120D7019A
:10428000ED91FC91EC0FFD1F1083C601DF91CF91E2
:104290001F91FF90EF90DF90CF9008950F931F93A1
:1042A0008C01FB01248135810E941721C8011F91D7
:1042B0000F9108958F929F92AF92BF92CF92DF920B
:1042C000EF92FF920F931F93DF93CF9300D000D014
:1042D00000D0CDB7DEB75C016B01DB0114968D9188
:1042E0009C9115970097A1F101974817590780F104
:1042F000F501848195814817590750F5ED91FC919E
:1043000000817A014E010894811C911C1FC0D501C7
:10431000ED91FC91EE0DFF1D80818017A1F4F60157
:10432000248135812E0D3F1DC401B501A7010E94D6
:104330001721C401B6010E94631D182FC4010E94F9
:10434000A11C112341F40894E108F108F7FEDFCF26
:10435000EE24EA94FE2CC70126960FB6F894DEBF31
:104360000FBECDBFCF91DF911F910F91FF90EF90C6
:10437000DF90CF90BF90AF909F908F900895FC01F9
:10438000DB014481558114968D919C911597481BB2
:10439000590BCF010E945A210895AF92BF92CF923C
:1043A000DF92EF92FF920F931F93DF93CF9300D092
:1043B00000D000D0CDB7DEB75C018B01DB016D9181
:1043C0007C916115710521F4B8010E94011F3EC066
:1043D000CE0101960E943120F801E480F580CC24C2
:1043E000DD240EC0D801ED91FC91EC0DFD1D808106
:1043F00090E00E94EC24892B31F00894C11CD11C60
:10440000CE14DF0478F3ED80FE800BC0D801ED916F
:10441000FC91EE0DFF1D808190E00E94EC24892B21
:1044200031F00894E108F108CE14DF0478F3089421
:10443000E11CF11CC5018E010F5F1F4FB801A601E1
:1044400097010E941721C8010E94A11CC501269650
:104450000FB6F894DEBF0FBECDBFCF91DF911F9195
:104460000F91FF90EF90DF90CF90BF90AF900895A5
:104470002F923F924F925F926F927F928F929F9274
:10448000AF92BF92CF92DF92EF92FF920F931F9362
:10449000DF93CF93CDB7DEB768970FB6F894DEBF42
:1044A0000FBECDBF3C01FB012A0119016081718162
:1044B0006115710521F4BF010E94011F5AC07E01E0
:1044C0000894E11CF11CC7010E9431208E01095F94
:1044D0001F4FC80162E072E00E943120D02EC12E31
:1044E0003DE0832E912C8C0E9D1E23E1A22EB12C3B
:1044F000AC0EBD1E24C0C401B70140E050E09801DD
:104500000E9417218D2D9C2DB4010E94301EC401E4
:104510000E94A11C8D2D9C2DB1010E94301EF20124
:1045200044815581400F511FC501B7010E944E21A2
:10453000C701B5010E94691EC5010E94A11CC701E7
:10454000B2010E943D1D8C01FFEF8F3F9F0799F63E
:104550008D2D9C2DB7010E94301EC3016D2D7C2D29
:104560000E94011F8D2D9C2D0E94A11CC7010E943D
:10457000A11CC30168960FB6F894DEBF0FBECDBF75
:10458000CF91DF911F910F91FF90EF90DF90CF902F
:10459000BF90AF909F908F907F906F905F904F9063
:1045A0003F902F900895EF92FF920F931F93DF9308
:1045B000CF9300D000D000D0CDB7DEB77C01FB0197
:1045C000142F022F608171816115710521F4BF01E3
:1045D0000E94011F19C0CE0101960E9431208981DD
:1045E0009A8101C00083612F70E00E944710FC0196
:1045F0000097C1F7C7018E010F5F1F4FB8010E94DE
:10460000011FC8010E94A11CC70126960FB6F8948D
:10461000DEBF0FBECDBFCF91DF911F910F91FF90F5
:10462000EF9008950F931F93CF93DF938C01EB01CD
:104630006115710511F4C2E0D2E0FE010190002085
:10464000E9F73197EC1BFD0BD8011596FC93EE931F
:104650001497C801BF010E941C1EF801808191813E
:10466000009719F0BE010E945B10DF91CF911F915E
:104670000F910895EF92FF920F931F93DF93CF93C3
:10468000CDB7DEB7A1970FB6F894DEBF0FBECDBF92
:104690008C01CB01BA017E010894E11CF11CA70139
:1046A0000E94C510F70101900020E9F73197EE193B
:1046B000FF09D8011596FC93EE931497C801BF012A
:1046C0000E941C1EF80180819181009719F0B701AA
:1046D0000E945B10A1960FB6F894DEBF0FBECDBF4F
:1046E000CF91DF911F910F91FF90EF900895EF927E
:1046F000FF920F931F93DF93CF93CDB7DEB7A197B0
:104700000FB6F894DEBF0FBECDBF8C01CB01BA014E
:104710007E010894E11CF11CA7010E94C510F7015D
:1047200001900020E9F73197EE19FF09D80115969D
:10473000FC93EE931497C801BF010E941C1EF80160
:1047400080819181009719F0B7010E945B10A196BA
:104750000FB6F894DEBF0FBECDBFCF91DF911F9192
:104760000F91FF90EF900895EF92FF920F931F9398
:10477000DF93CF93CDB7DEB7A1970FB6F894DEBF26
:104780000FBECDBF8C01CB017E010894E11CF11C52
:10479000B7010E94A410F70101900020E9F73197BA
:1047A000EE19FF09D8011596FC93EE931497C801F2
:1047B000BF010E941C1EF80180819181009719F0B1
:1047C000B7010E945B10A1960FB6F894DEBF0FBE32
:1047D000CDBFCF91DF911F910F91FF90EF90089582
:1047E000EF92FF920F931F93DF93CF93CDB7DEB776
:1047F000A1970FB6F894DEBF0FBECDBF8C01CB01E1
:104800007E010894E11CF11CB7010E94A410F7017D
:1048100001900020E9F73197EE19FF09D8011596AC
:10482000FC93EE931497C801BF010E941C1EF8016F
:1048300080819181009719F0B7010E945B10A196C9
:104840000FB6F894DEBF0FBECDBFCF91DF911F91A1
:104850000F91FF90EF900895629FD001739FF00138
:10486000829FE00DF11D649FE00DF11D929FF00D00
:10487000839FF00D749FF00D659FF00D9927729F37
:10488000B00DE11DF91F639FB00DE11DF91FBD01C2
:10489000CF011124089597FB092E07260AD077FD32
:1048A00004D049D006D000201AF4709561957F4F4E
:1048B0000895F6F7909581959F4F0895A1E21A2EDD
:1048C000AA1BBB1BFD010DC0AA1FBB1FEE1FFF1FB4
:1048D000A217B307E407F50720F0A21BB30BE40B04
:1048E000F50B661F771F881F991F1A9469F760954B
:1048F0007095809590959B01AC01BD01CF01089505
:1049000097FB092E05260ED057FD04D0D7DF0AD01D
:10491000001C38F450954095309521953F4F4F4FEE
:104920005F4F0895F6F790958095709561957F4F4C
:104930008F4F9F4F0895AA1BBB1B51E107C0AA1FB1
:10494000BB1FA617B70710F0A61BB70B881F991F30
:104950005A95A9F780959095BC01CD0108952F92A5
:104960003F924F925F926F927F928F929F92AF92FF
:10497000BF92CF92DF92EF92FF920F931F93CF934C
:10498000DF93CDB7DEB7CA1BDB0B0FB6F894DEBFE3
:104990000FBECDBF09942A88398848885F846E8409
:1049A0007D848C849B84AA84B984C884DF80EE8053
:1049B000FD800C811B81AA81B981CE0FD11D0FB65C
:1049C000F894DEBF0FBECDBFED010895EE0FFF1FBF
:1049D0000590F491E02D0994911116C0803219F0E0
:1049E00089508550D0F708959111089581548A51C6
:1049F00008F4805E855A08959111089581568A5170
:104A000008F4805285580895992788270895F894C6
:024A1000FFCFD6
:104A12002E00000100000000000000000001020260
:104A22000303030304040404040404040505050544
:104A32000505050505050505050505050606060620
:104A42000606060606060606060606060606060604
:104A520006060606060606060606060607070707F0
:104A620007070707070707070707070707070707D4
:104A720007070707070707070707070707070707C4
:104A820007070707070707070707070707070707B4
:104A920007070707070707070707070708080808A0
:104AA2000808080808080808080808080808080884
:104AB2000808080808080808080808080808080874
:104AC2000808080808080808080808080808080864
:104AD2000808080808080808080808080808080854
:104AE2000808080808080808080808080808080844
:104AF2000808080808080808080808080808080834
:104B02000808080808080808080808080808080823
:104B12000808080808080808080808082000E80526
:104B2200000001000000FF000000002C140F1527F8
:104B320015CA13F8132014DE13000000002E110F03
:104B42001527152E112E112E11000000002E110F07
:044B5200152715000E
:00000001FF
