:100000000C9404010C94070C0C94380C0C94690C9F
:100010000C949A0C0C94CB0C0C94FC0C0C942D0DA1
:100020000C945E0D0C942E010C942E010C942E0158
:100030000C942E010C94FA070C942E010C942E01B2
:100040000C942E010C942E010C942E010C942E0174
:100050000C942E010C942E010C942E010C9432164B
:100060000C942E010C9430010C942E010C942E0152
:100070000C942E010C942E010C942E010C942E0144
:100080000C942E010C942E010C942E010C942E0134
:100090000C9471010C942E010C942E010C942E01E1
:1000A0000C942E010C942E010C942E010C942E0114
:1000B0000C942E010C942E010C942E010C942E0104
:1000C0000C942E010C942E010C942E010C94B20170
:1000D0000C942E010C942E010C94F3010C942E011F
:1000E0000C942E010200002100240027002A002D7C
:1000F000003000330001010000040107010A010083
:10010000002200250028002B002E003100340002C0
:10011000010000050108010B01000020002300265A
:100120000029002C002F003200000100000301060E
:10013000010901050505050705080808080202026E
:10014000020A0A0808040404040101010101010172
:10015000010303030303030303040707070C0C0C49
:100160000C0C0C0C0C020202020606060606060621
:10017000060B0B0B0B0B0B0B0B01021020200808BE
:1001800010204010204080020102010804020101F9
:1001900002040810204080804020100804020180E2
:1001A0000402018040201008040201080402010139
:1001B0000204081020408001020408102040800042
:1001C00000090A02080B0C0D0706030401000000D9
:1001D000000000000000000000000000000000001F
:1001E0000000000000000000000000100F0E0000E2
:1001F00000000000000000000000000000000000FF
:10020000000000000000240411241FBECFEFD1E243
:10021000DEBFCDBF12E0A0E0B2E0EEE7FFE300E01A
:100220000BBF02C007900D92AC33B107D9F714E0B1
:10023000ACE3B2E001C01D92A03EB107E1F712E0CD
:10024000C8E0D2E004C02297FE010E94671FC630BA
:10025000D107C9F70E942F160C94BD1F0C94000003
:100260001F920F920FB60F920BB60F9211242F937D
:100270003F934F935F936F937F938F939F93AF932E
:10028000BF93EF93FF934091C600E091BC02F091C1
:10029000BD02CF01019660E870E00E94011F9C0141
:1002A0008091BE029091BF022817390739F0E45CB3
:1002B000FD4F40833093BD022093BC02FF91EF912C
:1002C000BF91AF919F918F917F916F915F914F916E
:1002D0003F912F910F900BBE0F900FBE0F901F906C
:1002E00018951F920F920FB60F920BB60F92112412
:1002F0002F933F934F935F936F937F938F939F932E
:10030000AF93BF93EF93FF934091CE00E0914003F2
:10031000F0914103CF01019660E870E00E94011F57
:100320009C0180914203909143032817390739F0CB
:10033000E054FD4F40833093410320934003FF91ED
:10034000EF91BF91AF919F918F917F916F915F914D
:100350004F913F912F910F900BBE0F900FBE0F90BA
:100360001F9018951F920F920FB60F920BB60F9217
:1003700011242F933F934F935F936F937F938F93AA
:100380009F93AF93BF93EF93FF934091D600E0917B
:10039000C403F091C503CF01019660E870E00E94AC
:1003A000011F9C018091C6039091C703281739074C
:1003B00039F0EC5BFC4F40833093C5032093C403BA
:1003C000FF91EF91BF91AF919F918F917F916F912D
:1003D0005F914F913F912F910F900BBE0F900FBEE9
:1003E0000F901F9018951F920F920FB60F920BB699
:1003F0000F9211242F933F934F935F936F937F93AB
:100400008F939F93AF93BF93EF93FF9340913601E8
:10041000E0914804F0914904CF01019660E870E052
:100420000E94011F9C0180914A0490914B0428175F
:10043000390739F0E853FC4F408330934904209347
:100440004804FF91EF91BF91AF919F918F917F9160
:100450006F915F914F913F912F910F900BBE0F9035
:100460000FBE0F901F9018958F92AF92CF92DF9290
:10047000EF92FF920F931F93DF93CF93CDB7DEB729
:10048000FC0184E092E091838083738362835583CF
:1004900044833783268311870087F386E286D586D7
:1004A000C486A68687868D85808B8E85818B8F8579
:1004B000828BCF91DF911F910F91FF90EF90DF9092
:1004C000CF90AF908F9008958F92AF92CF92DF929E
:1004D000EF92FF920F931F93DF93CF93CDB7DEB7C9
:1004E000FC0184E092E0918380837383628355836F
:1004F00044833783268311870087F386E286D58677
:10050000C486A68687868D85808B8E85818B8F8518
:10051000828BCF91DF911F910F91FF90EF90DF9031
:10052000CF90AF908F9008955F926F927F928F924D
:100530009F92AF92BF92CF92DF92EF92FF920F9372
:100540001F93CF93DF93EC015A016B0181E8A8164A
:1005500086E9B80688E9C80680E0D80608F077C0C2
:1005600060E07DE281E391E0A60195010E94141F05
:1005700039014A010894610871088108910896942C
:10058000879477946794A40193012F5F3F4F4F4F57
:100590005F4F74E0220F331F441F551F7A95D1F728
:1005A00060E078E689E899E00E94141FCA01B90169
:1005B0002FEF30E040E050E00E94E21EA6019501DE
:1005C0000E94141F8FEF90E0821B930B18161906E0
:1005D0001CF4522E509402C0522E539460E07AE5DF
:1005E00082E692E0A60195010E94141F215030403E
:1005F0004040504056954795379527952F5F3F4F80
:100600004F4F5F4F93E0220F331F441F551F9A95A2
:10061000D1F760E078E689E899E00E94141FCA01EA
:10062000B9012FEF30E040E050E00E94E21EA60149
:1006300095010E94141F8FEF90E0821B930B1816F8
:10064000190614F4209501C02F5F2515F0F4E885F4
:10065000F98581E090E00A8802C0880F991F0A940A
:10066000E2F7808360E07AE582E692E0A6019501F8
:100670000E94141F215030404040504056954795ED
:1006800037952795822F232F05C0E885F98510829D
:10069000862D272DEC81FD812083EE81FF818083D3
:1006A000EA85FB85208141E050E0CA010E8402C04A
:1006B000880F991F0A94E2F7282B2083EA85FB858F
:1006C0002081CA010F8402C0880F991F0A94E2F7A3
:1006D000282B2083EA85FB858081088802C0440F8F
:1006E000551F0A94E2F7842B8083DF91CF911F91ED
:1006F0000F91FF90EF90DF90CF90BF90AF909F90C1
:100700008F907F906F905F900895FC01A285B385D4
:100710004C9121E030E0C901068402C0880F991F86
:100720000A94E2F7809584238C93A285B3854C913B
:10073000C901078402C0880F991F0A94E2F78095C7
:1007400084238C93A285B3858C91008802C0220FEC
:10075000331F0A94E2F7209528232C930895DC0197
:100760001296ED91FC911397E058FF4F8191919172
:1007700080589F4F20813181821B930B60E870E08D
:100780000E94011F0895DC011296ED91FC911397D0
:10079000EE57FF4F2081318192918291E058F040D5
:1007A0008217930719F42FEF3FEF05C0E20FF31FF5
:1007B0008081282F30E0C9010895CF93DF93DC01B9
:1007C0001296ED91FC911397EF01CE57DF4F4881C0
:1007D0005981E058FF4F80819181E058F0408417A3
:1007E000950719F42FEF3FEF0CC0E40FF51F2081A0
:1007F000CA01019660E870E00E94011F9983888316
:1008000030E0C901DF91CF910895DC011296ED919E
:10081000FC911397EE57FF4F8081918192938293C1
:100820000895FC01A085B18521898C9190E0022E6C
:1008300002C0959587950A94E2F780FFF6CF04846D
:10084000F585E02D6083089524E032E030934D0477
:1008500020934C048CE392E090934F0480934E04D9
:1008600085EC90E0909351048093500484EC90E0E8
:10087000909353048093520480EC90E0909355043D
:100880008093540481EC90E0909357048093560435
:1008900086EC90E09093590480935804E4E0E09350
:1008A0005A0473E070935B0467E060935C0455E066
:1008B00050935D0441E040935E04309360042093C4
:1008C0005F0480EC92E090936204809361048DEC6D
:1008D00090E090936404809363048CEC90E0909398
:1008E00066048093650488EC90E09093680480939C
:1008F000670489EC90E090936A04809369048EEC1D
:1009000090E090936C0480936B04E0936D0470937B
:100910006E0460936F04509370044093710430939D
:1009200073042093720484E493E09093750480939D
:10093000740485ED90E0909377048093760484EDC1
:1009400090E0909379048093780480ED90E0909308
:100950007B0480937A0481ED90E090937D048093F2
:100960007C0486ED90E090937F0480937E04E09376
:1009700080047093810460938204509383044093B5
:100980008404309386042093850488EC93E090934C
:1009900088048093870485E391E090938A04809390
:1009A000890484E391E090938C0480938B0480E32A
:1009B00091E090938E0480938D0481E391E0909375
:1009C000900480938F0486E391E090939204809347
:1009D0009104E0939304709394046093950450936E
:1009E00096044093970408950F931F93CF93DF933A
:1009F0008C01EB0109C02196D801ED91FC91019089
:100A0000F081E02DC801099568816623A1F7DF9187
:100A1000CF911F910F910895EF92FF920F931F9323
:100A2000CF93DF938C017B01EA010CC0D7016D915C
:100A30007D01D801ED91FC910190F081E02DC8017C
:100A400009952197209791F7DF91CF911F910F91F1
:100A5000FF90EF900895DC01ED91FC910280F3810D
:100A6000E02D09950895CF92DF92EF92FF920F93B8
:100A70001F93CF93DF936C017B01C0E0D0E00EC0E9
:100A8000D601ED91FC9100811181C701BE010E9448
:100A9000560E682FC601F80109952196F701848149
:100AA0009581C817D90760F3DF91CF911F910F91FE
:100AB000FF90EF90DF90CF9008952F923F924F924A
:100AC0005F926F927F928F929F92AF92BF92CF92DE
:100AD000DF92EF92FF920F931F93DF93CF93CDB7E7
:100AE000DEB7A0970FB6F894DEBF0FBECDBF1C01D6
:100AF0006A017B01411551056105710549F440E327
:100B000050E060E070E020E030E00E94270654C032
:100B1000882499245401422E55246624772401E028
:100B200010E00C0F1D1F080D191DC701B601A30110
:100B300092010E94141FF80160830894811C911C8B
:100B4000A11CB11CC701B601A30192010E94141F90
:100B5000C901DA016C017D01C114D104E104F10481
:100B6000F1F681E0E82EF12CEC0EFD1EE80CF91CEC
:100B70003E010894611C711CD501C4010197A109B3
:100B8000B1096C01C818D90814C0F601EE0DFF1D9B
:100B900040814A3010F4405D01C0495C50E060E0A3
:100BA00070E0C10120E030E00E9427060894E108CF
:100BB000F1086E147F0449F7A0960FB6F894DEBFD3
:100BC0000FBECDBFCF91DF911F910F91FF90EF909E
:100BD000DF90CF90BF90AF909F908F907F906F905D
:100BE0005F904F903F902F900895DC0121153105C3
:100BF00041F4ED91FC910190F081E02D642F099575
:100C000008950E945D050895EF92FF920F931F9340
:100C10009A017B0100E010E0B801A7010E94F505F0
:100C20001F910F91FF90EF900895EF92FF920F9315
:100C30001F939A01E62EFF2400E010E0B801A701FF
:100C40000E94F5051F910F91FF90EF900895EF928C
:100C5000FF920F931F93CF93DF93EC017A018B01E7
:100C60002115310541F4E881F9810190F081E02DF1
:100C7000642F09951BC02A303105B1F477FF10C0ED
:100C80004DE250E060E070E020E030E00E94270696
:100C900010950095F094E094E11CF11C011D111DCC
:100CA000CE01B801A7012AE00E945D05DF91CF9136
:100CB0001F910F91FF90EF900895EF92FF920F9385
:100CC0001F937B019A010027F7FC0095102FB801B4
:100CD000A7010E9427061F910F91FF90EF900895A2
:100CE000EF92FF920F931F939A01E62EFF2400E0EC
:100CF00010E0B801A7010E9427061F910F91FF90F5
:100D0000EF9008950F931F938C014DE050E060E049
:100D100070E020E030E00E942706C8014AE050E081
:100D200060E070E020E030E00E9427061F910F9104
:100D300008950F931F938C010E94F505C8010E942E
:100D400082061F910F910895CF92DF92EF92FF924A
:100D50000F931F938C019A016B01EE24FF24B701BE
:100D6000A6010E94F505C8010E9482061F910F91FD
:100D7000FF90EF90DF90CF900895CF92DF92EF92A7
:100D8000FF920F931F938C019A01C62EDD24EE244F
:100D9000FF24B701A6010E94F505C8010E94820642
:100DA0001F910F91FF90EF90DF90CF9008950F93D8
:100DB0001F938C010E942B05C8010E9482061F917F
:100DC0000F9108950F931F938C010E943305C80162
:100DD0000E9482061F910F9108950F931F938C011B
:100DE0000E942706C8010E9482061F910F91089554
:100DF000CF92DF92EF92FF920F931F938C016B01C2
:100E00009A01EE24D7FCE094FE2CB701A6010E94C3
:100E10002706C8010E9482061F910F91FF90EF9054
:100E2000DF90CF900895CF92DF92EF92FF920F93D1
:100E30001F938C019A01C62EDD24EE24FF24B701F6
:100E4000A6010E942706C8010E9482061F910F91E9
:100E5000FF90EF90DF90CF9008959F92AF92BF9256
:100E6000CF92DF92EF92FF920F931F93CF93DF9376
:100E7000EC017A018B01922ECB01BA0120E030E027
:100E800040E050E00E94301D88236CF4CE014DE21A
:100E900050E060E070E020E030E00E94270617FBA1
:100EA000109517F9109520E030E040E05FE3AA24A8
:100EB0000BC0CA01B90120E030E040E251E40E94D9
:100EC000341D9B01AC01A394A91498F3C801B70188
:100ED0000E94CC1C5B016C010E94A11D7B018C0156
:100EE000CE01B801A7012AE030E00E94F505992063
:100EF00029F0CE0162E272E00E942B05C801B70121
:100F00000E94CD1D9B01AC01C601B5010E94CB1C06
:100F100022C020E030E040E251E40E947F1E7B01CD
:100F20008C010E949C1D5B016C01CC24B7FCC09419
:100F3000DC2CCE01B601A5012AE030E00E94270694
:100F4000C601B5010E94CF1D9B01AC01C801B701CC
:100F50000E94CB1C9A949920E1F6DF91CF911F91CA
:100F60000F91FF90EF90DF90CF90BF90AF909F9048
:100F700008950E942D0708950F931F938C010E94DE
:100F80002D07C8010E9482061F910F91089582309B
:100F9000B9F0833028F4882351F0813051F50AC02C
:100FA000843011F18430E8F0853019F520C01092BA
:100FB0006E00089580916F008D7F80936F0008957B
:100FC000809170008D7F8093700081E08093B000ED
:100FD0008091B100887F84608093B1001092B3004B
:100FE0000895109271000895109272000895109261
:100FF000730008951F920F920FB60F920BB60F92C7
:1010000011242F933F934F935F936F937F938F930D
:101010009F93AF93BF93EF93FF938091A60490911A
:10102000A704A091A804B091A9040097A105B10557
:1010300051F1E091AA04F091AB0480819091AC044D
:10104000892780838091A6049091A704A091A80489
:10105000B091A904181619061A061B060CF5809102
:10106000A6049091A704A091A804B091A9040197A7
:10107000A109B1098093A6049093A704A093A804A2
:10108000B093A9040DC082E00E94C707E091AA04B2
:10109000F091AB0490818091AC048095892380838A
:1010A000FF91EF91BF91AF919F918F917F916F9140
:1010B0005F914F913F912F910F900BBE0F900FBEFC
:1010C0000F901F9018951F93182F80912E02811753
:1010D00011F09FEF06C0E4EEF0E094918FEF809363
:1010E0002E02892F0E94C707812F60E00E944518B9
:1010F0001F9108954F925F926F927F929F92AF924D
:10110000BF92CF92DF92EF92FF920F931F93CF93F4
:10111000DF93A82FEB0129013A0180912E028A1753
:1011200021F4E4EEF0E0949003C18F3F09F0B7C2E0
:10113000A0932E02E4EEF0E094902FEF921609F4C3
:10114000AEC282E0981609F45BC089153CF0992084
:1011500089F091E0991609F0EBC02CC0E4E09E16EE
:1011600009F49AC09E160CF471C0F5E09F1609F0C0
:10117000DFC0B8C014BC15BC84B5826084BD85B521
:10118000816085BD2A2F30E0F901ED5CFE4FE491CE
:10119000F0E0EE0FFF1FE150FF4F85919491909387
:1011A0009D0480939C0427583E4FF90184918093BD
:1011B0009E04C0C010928000109281008091810036
:1011C000886080938100809181008160809381009C
:1011D0002A2F30E0F901ED5CFE4FE491F0E0EE0FD4
:1011E000FF1FE150FF4F859194919093A404809349
:1011F000A30427583E4FF90184918093A5049AC017
:101200001092B0001092B1008091B0008260809383
:10121000B0008091B10081608093B1002A2F30E04E
:10122000F901ED5CFE4FE491F0E0EE0FFF1FE1509D
:10123000FF4F859194919093AB048093AA04275813
:101240003E4FF90184918093AC0474C010929000D9
:10125000109291008091910088608093910080911C
:1012600091008160809391002A2F30E0F901ED5CBC
:10127000FE4FE491F0E0EE0FFF1FE150FF4F85912C
:1012800094919093B2048093B10427583E4FF90192
:1012900084918093B3044EC01092A0001092A100DC
:1012A0008091A10088608093A1008091A10081605D
:1012B0008093A1002A2F30E0F901ED5CFE4FE4910C
:1012C000F0E0EE0FFF1FE150FF4F85919491909356
:1012D000B9048093B80427583E4FF9018491809354
:1012E000BA0428C01092200110922101809121019E
:1012F0008860809321018091210181608093210188
:101300002A2F30E0F901ED5CFE4FE491F0E0EE0FA2
:10131000FF1FE150FF4F859194919093C0048093FB
:10132000BF0427583E4FF90184918093C10402C045
:1013300097FCB5C18A2F61E00E941F18992021F007
:10134000F2E09F1609F0BCC05E01CC24DD2460E011
:1013500074EB84EC94E0A60195010E94141F7901BE
:101360008A010894E108F108010911092FEFE2163A
:10137000F1040105110509F008F499C060E876E967
:1013800088E990E0A60195010E94141F79018A0165
:101390000894E108F1080109110982E09816C1F4E6
:1013A0009FEFE916F1040105110509F008F484C066
:1013B00060EA75E286E290E0A60195010E94141FA2
:1013C00079018A010894E108F1080109110983E013
:1013D000EFEFEE16F1040105110509F008F468C0FD
:1013E00060ED72E183E190E0A60195010E94141F77
:1013F00079018A010894E108F1080109110999208D
:1014000011F483E01DC0F2E09F1611F084E018C0D3
:101410002FEFE216F1040105110509F008F43DC1B2
:1014200068E679E889E090E0A60195010E94141F22
:1014300079018A010894E108F1080109110985E0A0
:101440009FEFE916F1040105110591F188F164EBB4
:1014500074EC84E090E0A60195010E94141F7901CC
:101460008A010894E108F10801091109992011F095
:1014700086E001C084E0EFEFEE16F10401051105EE
:10148000B9F0B0F06DE271E381E090E0A601950162
:101490000E94141F79018A010894E108F1080109EA
:1014A0001109992011F087E008C085E003C081E0B0
:1014B000992019F485BD58C082E08093B10054C0D2
:1014C0005E01CC24DD2460E074EB84EC94E0A601A2
:1014D00095010E94141F79018A010894E108F1081E
:1014E00001091109F0E0EF16F0E0FF06F1E00F0747
:1014F000F0E01F0710F491E010C060ED72E183E1AD
:1015000090E0A60195010E94141F79018A010894B8
:10151000E108F1080109110993E021E0921639F47C
:1015200080918100887F982B909381001DC083E07B
:10153000981639F480919100887F982B90939100B0
:1015400013C0E4E09E1639F48091A100887F982BA7
:101550009093A10009C0F5E09F1631F4809121011C
:10156000887F982B909321014114510461047104E8
:1015700029F48FEF9FEFAFEFBFEF11C0CC0FDD1F4E
:10158000BE0180E090E0A30192010E94E21E28EEDD
:1015900033E040E050E00E94141FC901DA0122E06C
:1015A0009216A9F129153CF0992081F0E1E09E16F0
:1015B00009F075C01AC0F4E09F1609F44AC09F16DE
:1015C000B4F125E0921609F06AC055C0E7BC8093DB
:1015D000980490939904A0939A04B0939B048091EB
:1015E0006E00826080936E005AC0F0928900E09293
:1015F000880080939F049093A004A093A104B093CB
:10160000A20480916F00826080936F0048C0E092D6
:10161000B3008093A6049093A704A093A804B0936A
:10162000A9048091700082608093700038C0F092AD
:101630009900E09298008093AD049093AE04A0933B
:10164000AF04B093B0048091710082608093710008
:1016500026C0F092A900E092A8008093B404909371
:10166000B504A093B604B093B70480917200826071
:101670008093720014C0F0922901E09228018093B7
:10168000BB049093BC04A093BD04B093BE048091AE
:10169000730082608093730002C084E00ECFDF91FC
:1016A000CF911F910F91FF90EF90DF90CF90BF905F
:1016B000AF909F907F906F905F904F90089588308B
:1016C00008F078C0E82FF0E0EE0FFF1FEE53FB4F5D
:1016D000718360838330D9F0843030F4813009F431
:1016E00044C0823060F439C0853051F18530D8F083
:1016F000863009F446C0873009F05CC04FC0809145
:1017000069008C7F842B80936900E89A089580910A
:101710006900440F551F440F551F837F842B80930E
:101720006900E99A08958091690074E0440F551F9B
:101730007A95E1F78F7C842B80936900EA9A08956B
:101740008091690066E0440F551F6A95E1F78F7339
:10175000842B80936900EB9A089580916A008C7FB6
:10176000842B80936A00EC9A089580916A00440F5C
:10177000551F440F551F837F842B80936A00ED9A79
:10178000089580916A0024E0440F551F2A95E1F7DF
:101790008F7C842B80936A00EE9A089580916A0072
:1017A00096E0440F551F9A95E1F78F73842B809331
:1017B0006A00EF9A0895883048F5833091F08430BC
:1017C00028F48130B1F0823050F411C0853069F0D6
:1017D000853048F0863079F0873081F40EC0E89883
:1017E0000DC0E9980BC0EA9809C0EB9807C0EC98C7
:1017F00005C0ED9803C0EE9801C0EF98E82FF0E027
:10180000EE0FFF1FEE53FB4F1182108208951F92BF
:101810000F920FB60F920BB60F9211242F933F9396
:101820004F935F936F937F938F939F93AF93BF93E8
:10183000EF93FF938091C6049091C704892B29F000
:10184000E091C604F091C7040995FF91EF91BF9113
:10185000AF919F918F917F916F915F914F913F9148
:101860002F910F900BBE0F900FBE0F901F901895E9
:101870001F920F920FB60F920BB60F9211242F9357
:101880003F934F935F936F937F938F939F93AF9308
:10189000BF93EF93FF938091C8049091C904892B63
:1018A00029F0E091C804F091C9040995FF91EF91E6
:1018B000BF91AF919F918F917F916F915F914F9168
:1018C0003F912F910F900BBE0F900FBE0F901F9066
:1018D00018951F920F920FB60F920BB60F9211240C
:1018E0002F933F934F935F936F937F938F939F9328
:1018F000AF93BF93EF93FF938091CA049091CB0471
:10190000892B29F0E091CA04F091CB040995FF914D
:10191000EF91BF91AF919F918F917F916F915F9167
:101920004F913F912F910F900BBE0F900FBE0F90D4
:101930001F9018951F920F920FB60F920BB60F9231
:1019400011242F933F934F935F936F937F938F93C4
:101950009F93AF93BF93EF93FF938091CC049091AB
:10196000CD04892B29F0E091CC04F091CD040995A8
:10197000FF91EF91BF91AF919F918F917F916F9167
:101980005F914F913F912F910F900BBE0F900FBE23
:101990000F901F9018951F920F920FB60F920BB6D3
:1019A0000F9211242F933F934F935F936F937F93E5
:1019B0008F939F93AF93BF93EF93FF938091C20454
:1019C0009091C304892B29F0E091C204F091C304E3
:1019D0000995FF91EF91BF91AF919F918F917F9169
:1019E0006F915F914F913F912F910F900BBE0F9090
:1019F0000FBE0F901F9018951F920F920FB60F9267
:101A00000BB60F9211242F933F934F935F936F93D5
:101A10007F938F939F93AF93BF93EF93FF938091A7
:101A2000C4049091C504892B29F0E091C404F0917D
:101A3000C5040995FF91EF91BF91AF919F918F914F
:101A40007F916F915F914F913F912F910F900BBEBE
:101A50000F900FBE0F901F9018951F920F920FB608
:101A60000F920BB60F9211242F933F934F935F93D6
:101A70006F937F938F939F93AF93BF93EF93FF9356
:101A80008091CE049091CF04892B29F0E091CE046F
:101A9000F091CF040995FF91EF91BF91AF919F9184
:101AA0008F917F916F915F914F913F912F910F9007
:101AB0000BBE0F900FBE0F901F9018951F920F92A4
:101AC0000FB60F920BB60F9211242F933F934F93A3
:101AD0005F936F937F938F939F93AF93BF93EF9396
:101AE000FF938091D0049091D104892B29F0E0914B
:101AF000D004F091D1040995FF91EF91BF91AF917E
:101B00009F918F917F916F915F914F913F912F9115
:101B10000F900BBE0F900FBE0F901F9018952F9235
:101B20003F924F925F926F927F928F929F92AF926D
:101B3000BF92CF92DF92EF92FF920F931F93DF93AA
:101B4000CF93CDB7DEB73B014C0119012A016D8956
:101B50007E898F89988D6A197B098C099D09621A83
:101B6000730A840A950AA40193010E94E21EE218F6
:101B7000F30804091509A80197010E94361F2A0DD0
:101B80003B1D4C1D5D1DB901CA01CF91DF911F9115
:101B90000F91FF90EF90DF90CF90BF90AF909F900C
:101BA0008F907F906F905F904F903F902F9008950F
:101BB000089570E0382F20E0622B732BCB0108953D
:101BC000EF92FF920F931F937B018C0161157105BA
:101BD0008105910529F420E030E040E050E00BC0A1
:101BE0000E94CB1BA80197010E94361FAC01CB01BC
:101BF000DA019C01AD01B901CA011F910F91FF905B
:101C0000EF900895EF92FF920F931F937B018C0149
:101C1000621773078407950764F4261B370B480B7C
:101C2000590BCA01B9010E94E00DE60EF71E081F0C
:101C3000191FB701C8011F910F91FF90EF900895F0
:101C4000009729F0BC0180E090E00E94D01B08952D
:101C5000FC010190F081E02DE60FF71F80810895CF
:101C6000DC01ED91FC911197309751F014968D9114
:101C70009C9115976817790718F4E60FF71F4083B2
:101C80000895FC019B01848195816817790728F4E8
:101C9000608171816115710529F41092D20462EDA1
:101CA00074E002C0620F731FCB010895FC01019024
:101CB000F081E02DE60FF71F808108950F931F93A9
:101CC000CF93DF93FC018B0141155105A1F0611504
:101CD000710589F084819581EA0121978C179D0710
:101CE00008F4EC0160817181C801AE010E940D1CF5
:101CF000C00FD11F1882DF91CF911F910F910895CE
:101D00000F931F93CF93DF93FC018B014115510576
:101D1000A1F06115710589F084819581EA0121970F
:101D20008C179D0708F4EC0160817181C801AE0138
:101D30000E940D1CC00FD11F1882DF91CF911F91FF
:101D40000F9108950F931F938C01FC018081918165
:101D50000E94201BF80113821282158214821F91A7
:101D60000F910895FC01DB0114962D913C9115977C
:101D700084819581821B930B8417950710F480E072
:101D80000895808191816D917C91840F951FA901A7
:101D90000E94FF1B9C0180E0232B09F481E0089541
:101DA000FC01DB012481358114968D919C9115975E
:101DB0002817390710F480E00895CF0140E050E083
:101DC0000E94B20E0895DF92EF92FF920F931F933D
:101DD000CF93DF93EC018C819D8148175907B8F4AC
:101DE0007A010894E11CF11CE881F981EE0DFF1DD8
:101DF000D080108208811981C80170E00E941C1CEB
:101E00009C010E0D1F1DF801D082009719F4EFEF11
:101E1000FFEF05C088819981F901E81BF90BCF011B
:101E2000DF91CF911F910F91FF90EF90DF90089578
:101E3000FC0144815581415050400E94E30E0895B9
:101E4000CF93DF93FC01DB0184819581481759070B
:101E500060F4C081D1816D917C91CE01840F951F7A
:101E60000E94271C9C01009719F42FEF3FEF02C03E
:101E70002C1B3D0BC901DF91CF91089540E050E04C
:101E80000E94200F0895CF93DF93FC0184819581F8
:101E90004817590758F4C081D181CE01840F951F8E
:101EA00070E00E94E41B9C01009719F42FEF3FEFB4
:101EB00002C02C1B3D0BC901DF91CF91089540E07A
:101EC00050E00E94430F0895DC01FB0114962D9110
:101ED0003C911597848195812817390711F080E08E
:101EE0000895608171818D919C910E94EF1B9C01EE
:101EF00080E0232B09F481E00895FC01DB012481BB
:101F0000358114968D919C9115972817390710F4F7
:101F100080E00895281B390B808191816D917C911F
:101F2000820F931F0E94EF1B9C0180E0232B09F47A
:101F300081E00895DC01FB01608171818D919C91AC
:101F40000E94EF1B292F332727FD309520953095D0
:101F50002227330F221F3327C9010895DC01FB011B
:101F6000608171818D919C910E94EF1B40E050E057
:101F70001816190614F041E050E0CA010895DC017A
:101F8000FB01608171818D919C910E94EF1B40E06B
:101F900050E01816190614F441E050E0CA01089503
:101FA000DC01FB01608171818D919C910E94EF1B8E
:101FB000292F332727FD30952227330F221F332760
:101FC000C9010895DC01FB0114962D913C911597F0
:101FD000848195812817390751F4608171818D9131
:101FE0009C910E94EF1B9C0180E0232B09F081E073
:101FF00090E00895DC01FB0114962D913C9115971A
:10200000848195812817390711F080E00BC0608129
:1020100071818D919C910E94EF1B9C0180E0232B8C
:1020200009F481E090E00895FC01DB016D917C9161
:10203000808191810E94EF1B0895CF93DF93EC0183
:10204000CB017B836A8301960E94731A99838883EC
:10205000009721F41B821A821D821C82DF91CF918E
:102060000895EF92FF920F931F93CF93DF93EC01AC
:102070007B01FB01648175818C819D81680F791FD3
:102080007D836C838A819B818617970778F408810A
:102090001981CE010E941D1088819981009719F045
:1020A000B8010E94F81BC8010E94201B88819981F9
:1020B000009729F0F701608171810E94D91BCE0140
:1020C000DF91CF911F910F91FF90EF9008950E94A3
:1020D000311008950F931F93CF93DF93EC018B0181
:1020E0008617970709F1FB01248135818C819D8139
:1020F0008217930750F4888199810E94201BF80170
:1021000064817581CE010E941D10288139812115BD
:10211000310551F0F801848195819D838C83608124
:102120007181C9010E94F81BCE01DF91CF911F91EF
:102130000F9108951F93CF93DF93EC01162F81E049
:1021400090E09D838C83CE0161E070E00E941D10C1
:10215000E881F981309721F01083E881F9811182BB
:10216000DF91CF911F9108951F93CF93DF93EC01DF
:10217000162F81E090E09D838C83CE0161E070E0BA
:102180000E941D10E881F981309721F01083E881C9
:10219000F9811182DF91CF911F9108951F93CF9301
:1021A000DF93EC01162F81E090E09D838C83CE01BC
:1021B00061E070E00E941D10E881F981309721F004
:1021C0001083E881F9811182DF91CF911F910895E9
:1021D0001F93CF93DF93EC01162F81E090E09D8356
:1021E0008C83CE0161E070E00E941D10E881F981CE
:1021F000309721F01083E881F9811182DF91CF912E
:102200001F9108950F931F93CF93DF938C01EB01E0
:102210006C817D81FC01758364830E941D10F8012F
:1022200080819181009721F0688179810E94F81B5B
:10223000DF91CF911F910F9108950F931F93CF932B
:10224000DF938C01EB016C817D81FC0175836483DC
:102250000E941D10F80180819181009721F0688112
:1022600079810E94F81BDF91CF911F910F91089502
:10227000EF92FF920F931F93DF93CF93CDB7DEB70B
:10228000A1970FB6F894DEBF0FBECDBF8C01CB0176
:10229000BA017E010894E11CF11CA7012AE030E09C
:1022A0000E94961CF70101900020E9F73197EE1982
:1022B000FF09D8011596FC93EE931497C801BF014E
:1022C0000E941D10F80180819181009719F0B701DB
:1022D0000E94F81BA1960FB6F894DEBF0FBECDBFCB
:1022E000CF91DF911F910F91FF90EF900895EF92A2
:1022F000FF920F931F93DF93CF93CDB7DEB7A197D4
:102300000FB6F894DEBF0FBECDBF8C01CB01BA0172
:102310007E010894E11CF11CA7012AE030E00E9434
:10232000961CF70101900020E9F73197EE19FF099B
:10233000D8011596FC93EE931497C801BF010E9433
:102340001D10F80180819181009719F0B7010E945A
:10235000F81BA1960FB6F894DEBF0FBECDBFCF918C
:10236000DF911F910F91FF90EF900895EF92FF92F0
:102370000F931F93DF93CF93CDB7DEB7A1970FB61F
:10238000F894DEBF0FBECDBF8C019A0180E090E0D3
:102390007E010894E11CF11CA7010E94961CF70124
:1023A00001900020E9F73197EE19FF09D801159641
:1023B000FC93EE931497C801BF010E941D10F80111
:1023C00080819181009719F0B7010E94F81BA196B6
:1023D0000FB6F894DEBF0FBECDBFCF91DF911F9136
:1023E0000F91FF90EF900895EF92FF920F931F933C
:1023F000DF93CF93CDB7DEB7A1970FB6F894DEBFCA
:102400000FBECDBF8C019A0180E090E07E01089460
:10241000E11CF11CA7010E94961CF701019000200D
:10242000E9F73197EE19FF09D8011596FC93EE9361
:102430001497C801BF010E941D10F801808191818D
:10244000009719F0B7010E94F81BA1960FB6F894F7
:10245000DEBF0FBECDBFCF91DF911F910F91FF90D7
:10246000EF9008950F931F93CF93DF938C01EB01AF
:102470006115710511F4CFE2D2E0FE010190002058
:10248000E9F73197EC1BFD0BD8011596FC93EE9301
:102490001497C801BF010E941D10F801808191812D
:1024A000009719F0BE010E94F81BDF91CF911F9198
:1024B0000F910895AF92BF92CF92DF92EF92FF9269
:1024C0000F931F93CF93DF93B82EA92E6B01C82FC4
:1024D000D92FFB0160817181CE010E943212EE245E
:1024E000FF240EC0088119810E0D1F1DF801808187
:1024F00090E00E947B1FF80180830894E11CF11C8E
:10250000F60184819581E816F90660F38B2D9A2DEA
:10251000DF91CF911F910F91FF90EF90DF90CF90BF
:10252000BF90AF900895AF92BF92CF92DF92EF929B
:10253000FF920F931F93CF93DF93B82EA92E6B01B9
:10254000C82FD92FFB0160817181CE010E94321208
:10255000EE24FF240EC0088119810E0D1F1DF80105
:10256000808190E00E94731FF80180830894E11C31
:10257000F11CF60184819581E816F90660F38B2D34
:102580009A2DDF91CF911F910F91FF90EF90DF90E7
:10259000CF90BF90AF900895EF92FF920F931F934B
:1025A000DF93CF93CDB7DEB72C970FB6F894DEBF8D
:1025B0000FBECDBFFC017B018617970711F401E028
:1025C00029C024813581DB0114968D919C9115974A
:1025D0002817390711F000E01DC0CE010196BF0198
:1025E0000E94931209811A81CE010796B7010E94B9
:1025F00093126F817885C8010E94EF1B00E000975D
:1026000009F401E0CE0107960E94A20ECE010196C8
:102610000E94A20E802F2C960FB6F894DEBF0FBE3C
:10262000CDBFCF91DF911F910F91FF90EF90089553
:10263000CF92DF92EF92FF921F93CF93DF936C01C3
:102640007B01B9012417350710F4BA01A901D7019C
:1026500014968D919C911597EB018617970708F4B6
:10266000EC01D701ED91FC911197EC0FFD1F10814A
:1026700010826D917C91640F751FC6010E94321209
:10268000D701ED91FC91EC0FFD1F1083C601DF9186
:10269000CF911F91FF90EF90DF90CF9008950F930F
:1026A0001F938C01FB01248135810E941813C801FE
:1026B0001F910F9108958F929F92AF92BF92CF92E8
:1026C000DF92EF92FF920F931F93DF93CF9300D08F
:1026D00000D000D0CDB7DEB75C016B01DB011496F2
:1026E0008D919C9115970097A1F101974817590773
:1026F00080F1F501848195814817590750F5ED91D6
:10270000FC9100817A014E010894811C911C1FC02C
:10271000D501ED91FC91EE0DFF1D80818017A1F494
:10272000F601248135812E0D3F1DC401B501A7019D
:102730000E941813C401B6010E94640F182FC4012F
:102740000E94A20E112341F40894E108F108F7FE5B
:10275000DFCFEE24EA94FE2CC70126960FB6F8943C
:10276000DEBF0FBECDBFCF91DF911F910F91FF90C4
:10277000EF90DF90CF90BF90AF909F908F90089593
:10278000FC01DB014481558114968D919C91159734
:10279000481B590BCF010E945B130895AF92BF9263
:1027A000CF92DF92EF92FF920F931F93DF93CF931D
:1027B00000D000D000D0CDB7DEB75C018B01DB01CB
:1027C0006D917C916115710521F4B8010E9402118F
:1027D0003EC0CE0101960E943212F801E480F580DD
:1027E000CC24DD240EC0D801ED91FC91EC0DFD1D33
:1027F000808190E00E946B1F892B31F00894C11CEE
:10280000D11CCE14DF0478F3ED80FE800BC0D8011C
:10281000ED91FC91EE0DFF1D808190E00E946B1FF9
:10282000892B31F00894E108F108CE14DF0478F325
:102830000894E11CF11CC5018E010F5F1F4FB80108
:10284000A60197010E941813C8010E94A20EC5019B
:1028500026960FB6F894DEBF0FBECDBFCF91DF91A5
:102860001F910F91FF90EF90DF90CF90BF90AF90AE
:1028700008952F923F924F925F926F927F928F9224
:102880009F92AF92BF92CF92DF92EF92FF920F93FF
:102890001F93DF93CF93CDB7DEB768970FB6F89449
:1028A000DEBF0FBECDBF3C01FB012A0119016081D3
:1028B00071816115710521F4BF010E9402115AC096
:1028C0007E010894E11CF11CC7010E9432128E01A6
:1028D000095F1F4FC8016FE272E00E943212D02ED2
:1028E000C12E3DE0832E912C8C0E9D1E23E1A22E45
:1028F000B12CAC0EBD1E24C0C401B70140E050E0B5
:1029000098010E9418138D2D9C2DB4010E94311046
:10291000C4010E94A20E8D2D9C2DB1010E94311088
:10292000F20144815581400F511FC501B7010E943A
:102930004F13C701B5010E946A10C5010E94A20E83
:10294000C701B2010E943E0F8C01FFEF8F3F9F072E
:1029500099F68D2D9C2DB7010E943110C3016D2D6C
:102960007C2D0E9402118D2D9C2D0E94A20EC7016C
:102970000E94A20EC30168960FB6F894DEBF0FBE88
:10298000CDBFCF91DF911F910F91FF90EF90DF901E
:10299000CF90BF90AF909F908F907F906F905F90FF
:1029A0004F903F902F900895EF92FF920F931F93B7
:1029B000DF93CF9300D000D000D0CDB7DEB77C013D
:1029C000FB01142F022F608171816115710521F4C3
:1029D000BF010E94021119C0CE0101960E9432125D
:1029E00089819A8101C00083612F70E00E94E41BFD
:1029F000FC010097C1F7C7018E010F5F1F4FB8019F
:102A00000E940211C8010E94A20EC70126960FB6AD
:102A1000F894DEBF0FBECDBFCF91DF911F910F9114
:102A2000FF90EF9008950F931F93CF93DF938C0146
:102A3000EB016115710511F4CFE2D2E0FE010190C6
:102A40000020E9F73197EC1BFD0BD8011596FC939C
:102A5000EE931497C801BF010E941D10F8018081F8
:102A60009181009719F0BE010E94F81BDF91CF9170
:102A70001F910F910895EF92FF920F931F93DF9391
:102A8000CF93CDB7DEB7A1970FB6F894DEBF0FBED8
:102A9000CDBF8C01CB01BA017E010894E11CF11C71
:102AA000A7010E94621CF70101900020E9F731970D
:102AB000EE19FF09D8011596FC93EE931497C801FF
:102AC000BF010E941D10F80180819181009719F0CB
:102AD000B7010E94F81BA1960FB6F894DEBF0FBE97
:102AE000CDBFCF91DF911F910F91FF90EF9008958F
:102AF000EF92FF920F931F93DF93CF93CDB7DEB783
:102B0000A1970FB6F894DEBF0FBECDBF8C01CB01ED
:102B1000BA017E010894E11CF11CA7010E94621C0D
:102B2000F70101900020E9F73197EE19FF09D8016C
:102B30001596FC93EE931497C801BF010E941D10D7
:102B4000F80180819181009719F0B7010E94F81B6C
:102B5000A1960FB6F894DEBF0FBECDBFCF91DF9127
:102B60001F910F91FF90EF900895EF92FF920F93B6
:102B70001F93DF93CF93CDB7DEB7A1970FB6F8942D
:102B8000DEBF0FBECDBF8C01CB017E010894E11CDE
:102B9000F11CB7010E94411CF70101900020E9F7E8
:102BA0003197EE19FF09D8011596FC93EE9314970F
:102BB000C801BF010E941D10F8018081918100971A
:102BC00019F0B7010E94F81BA1960FB6F894DEBF6A
:102BD0000FBECDBFCF91DF911F910F91FF90EF906E
:102BE0000895EF92FF920F931F93DF93CF93CDB78A
:102BF000DEB7A1970FB6F894DEBF0FBECDBF8C0134
:102C0000CB017E010894E11CF11CB7010E94411C1C
:102C1000F70101900020E9F73197EE19FF09D8017B
:102C20001596FC93EE931497C801BF010E941D10E6
:102C3000F80180819181009719F0B7010E94F81B7B
:102C4000A1960FB6F894DEBF0FBECDBFCF91DF9136
:102C50001F910F91FF90EF900895F894FFCF0E947D
:102C6000CA16FFCF1F920F920FB60F9211242F9307
:102C70003F938F939F93AF93BF938091D70490918D
:102C8000D804A091D904B091DA043091DB04232F49
:102C9000245F2D3720F02D570196A11DB11D2093E3
:102CA000DB048093D7049093D804A093D904B09305
:102CB000DA048091D3049091D404A091D504B0910A
:102CC000D6040196A11DB11D8093D3049093D40422
:102CD000A093D504B093D604BF91AF919F918F91EB
:102CE0003F912F910F900FBE0F901F9018958FB7A7
:102CF000F8942091D7043091D8044091D904509190
:102D0000DA048FBFB901CA0108958FB7F8942091F2
:102D1000D3043091D4044091D5045091D60496B593
:102D200095B38FBF60E070E080E090E00895EF928F
:102D3000FF920F931F932FB7F894E090D304F09075
:102D4000D4040091D5041091D60436B535B32FBF05
:102D5000611571058105910571F08FB7F894209187
:102D6000D3043091D4044091D5045091D60496B543
:102D700095B38FBFF2CF1F910F91FF90EF90089501
:102D8000019739F0880F991F880F991F02970197B3
:102D9000F1F70895789484B5826084BD84B581602C
:102DA00084BD85B5826085BD85B5816085BDEEE653
:102DB000F0E0808181608083E1E8F0E01082808132
:102DC00082608083808181608083E0E8F0E08081A0
:102DD00081608083E1EBF0E0808184608083E0EBC0
:102DE000F0E0808181608083E1E9F0E080818260B1
:102DF0008083808181608083E1EAF0E0808182606D
:102E00008083808181608083E1E2F1E08081826063
:102E10008083808181608083E0E9F0E0808181604F
:102E20008083E0EAF0E0808181608083E0E2F1E08D
:102E3000808181608083EAE7F0E080818460808324
:102E400080818260808380818160808380818068CE
:102E500080831092C1000895809330020895382F26
:102E6000863308F0365320917B00832F8695869514
:102E7000869590E08170907043E0880F991F4A9585
:102E8000E1F7277F282B20937B0037708091300259
:102E90008295880F880F807C832B80937C008091A3
:102EA0007A00806480937A0080917A0086FDFCCF5E
:102EB0002091780040917900942F80E030E0282B19
:102EC000392BC90108951F93CF93DF93182FEB017E
:102ED00061E00E941F18E12FF0E0E154FE4F849161
:102EE000833051F480918000806880938000D0937B
:102EF0008900C09388009FC0843051F48091800085
:102F0000806280938000D0938B00C0938A0093C02E
:102F1000813041F4209709F487C084B5806884BD6E
:102F2000C7BD89C0823041F4209709F47DC084B5C3
:102F3000806284BDC8BD7FC0863041F48091B000FE
:102F400080688093B000C093B30075C0873041F4AF
:102F50008091B00080628093B000C093B4006BC0D9
:102F6000883051F480919000806880939000D093D5
:102F70009900C09398005FC0893051F4809190000F
:102F8000806280939000D0939B00C0939A0053C0BE
:102F90008A3051F480919000886080939000D093A3
:102FA0009D00C0939C0047C08B3051F48091A000DD
:102FB00080688093A000D093A900C093A8003BC074
:102FC00084918C3051F48091A00080628093A000A5
:102FD000D093AB00C093AA002EC08D3051F48091E5
:102FE000A00088608093A000D093AD00C093AC0097
:102FF00022C08E3051F4809120018068809320019E
:10300000D0932901C093280116C08F3051F48091CC
:103010002001806280932001D0932B01C0932A016C
:103020000AC0C038D1051CF4812F60E002C0812F96
:1030300061E00E944518DF91CF911F910895482FBC
:1030400050E0CA0187589E4FFC0124914D5C5E4FB1
:10305000FA0184918823C1F0E82FF0E0EE0FFF1F02
:10306000EB51FF4FA591B491662341F49FB7F894BB
:103070008C91209582238C939FBF08959FB7F894DD
:103080008C91822B8C939FBF0895482F50E0CA01EA
:1030900081549E4FFC012491CA0187589E4FFC0128
:1030A00034914D5C5E4FFA019491992309F47DC0EF
:1030B000222309F462C0233021F4809180008F77AD
:1030C00005C0243031F4809180008F7D8093800092
:1030D00054C0213019F484B58F7704C0223021F414
:1030E00084B58F7D84BD49C0263021F48091B00025
:1030F0008F7705C0273031F48091B0008F7D8093A9
:10310000B0003BC0283021F4809190008F7705C03B
:10311000293031F4809190008F7D809390002DC0F4
:103120002A3021F480919000877FF7CF2B3021F453
:103130008091A0008F770BC02C3021F48091A000EB
:103140008F7D05C02D3031F48091A000877F809362
:10315000A00013C02E3021F4809120018F770BC086
:103160002F3021F4809120018F7D05C0203129F47A
:1031700080912001877F80932001E92FF0E0EE0FFE
:10318000FF1FE150FF4FA591B491662341F49FB713
:10319000F8948C91309583238C939FBF08959FB7AB
:1031A000F8948C91832B8C939FBF0895682F70E0C7
:1031B000CB0181549E4FFC012491CB0187589E4F37
:1031C000FC0144916D5C7E4FFB019491992319F4AD
:1031D00020E030E075C0222309F462C0233021F4DE
:1031E000809180008F7705C0243031F48091800079
:1031F0008F7D8093800054C0213019F484B58F777F
:1032000004C0223021F484B58F7D84BD49C02630AE
:1032100021F48091B0008F7705C0273031F4809180
:10322000B0008F7D8093B0003BC0283021F48091A6
:1032300090008F7705C0293031F4809190008F7D08
:10324000809390002DC02A3021F480919000877FD8
:10325000F7CF2B3021F48091A0008F770BC02C305A
:1032600021F48091A0008F7D05C02D3031F4809134
:10327000A000877F8093A00013C02E3021F480919E
:1032800020018F770BC02F3021F4809120018F7D9A
:1032900005C0203129F480912001877F809320018F
:1032A000892F90E0880F991F875E9E4FFC01A591A2
:1032B000B4918C9120E030E0842311F021E030E0E3
:1032C000C9010895BF92CF92DF92EF92FF920F93C0
:1032D0001F93CF93DF93A82FB0E0CD0187589E4F67
:1032E000FC01C490AD5CBE4FFD01B490662311F4A7
:1032F000DD2401C0DC2CCA01B90120EA30E040E045
:1033000050E00E94E21E7B018C0194E01695079527
:10331000F794E7949A95D1F7AB2DB0E0AA0FBB1FB5
:10332000A75EBE4F20E030E040E050E0FD01C591D7
:10333000D4910AC02E153F054007510709F441C03A
:103340002F5F3F4F4F4F5F4F88818C218D1591F339
:103350000AC02E153F054007510799F12F5F3F4FD7
:103360004F4F5F4F03C0FD01C591D49188818C21DF
:103370008D1579F720E030E040E050E0FD01A591A7
:10338000B49104C02F5F3F4F4F4F5F4F8C918C2102
:103390008D15C1F3CA01B9012AE030E040E050E0E8
:1033A0000E94E21E605F7F4F8F4F9F4F20EA30E008
:1033B00040E050E00E94141FC901DA019C01AD01F8
:1033C00004C020E030E040E050E0B901CA01DF91E4
:1033D000CF911F910F91FF90EF90DF90CF90BF9012
:1033E0000895BF92CF92DF92EF92FF920F931F93B7
:1033F000CF93DF93E82EF62EB42EC7E0D0E0022F55
:1034000010E087E0C82ED12CBB2059F4B6016C1B0C
:103410007D0BC80102C0959587956A95E2F7BC01BE
:1034200007C0B8010C2E02C0759567950A94E2F7A3
:1034300061708E2D0E9445188F2D61E00E94451805
:103440008F2D60E00E94451821979FEFCF3FD9074D
:10345000D9F6DF91CF911F910F91FF90EF90DF9000
:10346000CF90BF900895CF92DF92EF92FF920F938B
:103470001F93CF93DF93F82E062FE42E10E0C7E0C2
:10348000D0E097E0C92ED12C802F61E00E94451832
:10349000EE2061F48F2D0E94D61896012C1B3D0B57
:1034A00002C0880F991F2A95E2F709C08F2D0E944C
:1034B000D6180C2E02C0880F991F0A94E2F7182B19
:1034C000802F60E00E94451821978FEFCF3FD807EB
:1034D000D9F6812FDF91CF911F910F91FF90EF903F
:1034E000DF90CF900895CF93DF93BC018230910598
:1034F00010F462E070E0A091DE04B091DF04ED0111
:10350000E0E0F0E040E050E021C08881998186173A
:10351000970769F48A819B81309719F0938382839E
:1035200004C09093DF048093DE04FE0134C068176A
:10353000790738F44115510519F08417950708F4F7
:10354000AC01FE018A819B819C01E9012097E9F68B
:1035500041155105A9F1CA01861B970B049708F480
:10356000BA01E0E0F0E02AC08D919C911197841798
:103570009507F9F46417750781F412968D919C9163
:103580001397309719F09383828304C09093DF04DC
:103590008093DE04FD0132964FC0CA01861B970B53
:1035A000FD01E80FF91F6193719302978D939C932E
:1035B00043C0FD01828193819C01D9011097A1F63E
:1035C0008091DC049091DD04892B41F480913302D9
:1035D000909134029093DD048093DC044091350295
:1035E000509136024115510541F44DB75EB78091B7
:1035F000310290913202481B590B2091DC0430912A
:10360000DD0424173507B0F4CA01821B930B86171B
:10361000970780F0AB014E5F5F4F8417950750F01E
:10362000420F531F5093DD044093DC04F901619372
:10363000719302C0E0E0F0E0CF01DF91CF910895F7
:10364000CF93DF93009709F450C0EC0122971B82BF
:103650001A82A091DE04B091DF04109709F140E0D6
:1036600050E0AC17BD0708F1BB83AA83FE0121918E
:103670003191E20FF31FAE17BF0779F48D919C9142
:103680001197280F391F2E5F3F4F398328831296D9
:103690008D919C9113979B838A834115510571F4F9
:1036A000D093DF04C093DE0420C012968D919C91CC
:1036B0001397AD01009711F0DC01D3CFFA01D3834A
:1036C000C28321913191E20FF31FCE17DF0769F416
:1036D00088819981280F391F2E5F3F4FFA0131836E
:1036E00020838A819B8193838283DF91CF91089588
:1036F000A0E0B0E0EEE7FBE10C948E1FEC01A880A7
:10370000B980CA80DB80A114B104C104D10441F4A2
:1037100084E2A82E89EDB82E8BE5C82E87E0D82E3E
:10372000C601B5012DE133EF41E050E00E94361FA4
:1037300027EA31E440E050E00E94E21E7B018C0168
:10374000C601B5012DE133EF41E050E00E94361F84
:10375000CA01B9012CEE34EF4FEF5FEF0E94E21E79
:103760006E0D7F1D801F911F97FF04C06150704038
:1037700080409048688379838A839B839B01AC0156
:103780005F77B901CA01CDB7DEB7EAE00C94AA1F92
:103790000E94781B089587E392E00E94781B0895A9
:1037A00060933702709338028093390290933A0203
:1037B0000895FB01DC010D900020E9F711970190BD
:1037C0000D920020E1F70895FC018191861721F008
:1037D0008823D9F7992708953197CF010895FB01E0
:1037E000DC018D91019080190110D9F3990B089596
:1037F000FB01DC0101900D920020E1F70895FB012F
:10380000DC014150504030F08D910190801919F445
:103810000020B9F7881B990B0895FB01DC0141508A
:10382000504048F001900D920020C9F701C01D9250
:1038300041505040E0F70895FC0181E090E0019094
:10384000061609F4CF010020D1F701970895FB0176
:1038500051915523A9F0BF01DC014D91451741114C
:10386000E1F759F4CD010190002049F04D91401548
:103870004111C9F3FB014111EFCF81E090E00197C5
:103880000895FB019F01E8944230C4F04532B4F43E
:103890004A3029F497FB1EF4909581959F4F642F31
:1038A00077270E94511F805D8A330CF0895D8193D8
:1038B000CB010097A1F716F45DE251931082C90184
:1038C0000C94BB1CFA01CF93FF93EF93223044F189
:1038D000253234F5C22FE894CA3049F497FB3EF400
:1038E00090958095709561957F4F8F4F9F4F2C2FAE
:1038F000332744275527FF93EF930E94141FEF911E
:10390000FF91605D6A330CF0695D6193B901CA0192
:10391000605070408040904051F716F4CDE2C19362
:1039200010828F919F91CF910C94BB1CFA01CF9381
:10393000FF93EF932230CCF02532BCF4C22F2C2F12
:10394000332744275527FF93EF930E94141FEF91CD
:10395000FF91605D6A330CF0695D6193B901CA0142
:10396000605070408040904051F710828F919F913D
:10397000CF910C94BB1CDC01FC01672F7191772364
:10398000E1F7329704C07C916D9370836291AE171A
:10399000BF07C8F308955058BB27AA270ED075C19A
:1039A00066D130F06BD120F031F49F3F11F41EF45A
:1039B0005BC10EF4E095E7FB51C1E92F77D180F3AD
:1039C000BA17620773078407950718F071F49EF51C
:1039D0008FC10EF4E0950B2EBA2FA02D0B01B9016B
:1039E00090010C01CA01A0011124FF27591B99F075
:1039F000593F50F4503E68F11A16F040A22F232F81
:103A0000342F4427585FF3CF469537952795A795D0
:103A1000F0405395C9F77EF41F16BA0B620B730B77
:103A2000840BBAF09150A1F0FF0FBB1F661F771FE8
:103A3000881FC2F70EC0BA0F621F731F841F48F49D
:103A4000879577956795B795F7959E3F08F0B3CF23
:103A50009395880F08F09927EE0F9795879508950D
:103A6000D9D008F481E008950CD00FC107D140F0FF
:103A7000FED030F021F45F3F19F0F0C0511139C190
:103A8000F3C014D198F39923C9F35523B1F3951BCF
:103A9000550BBB27AA2762177307840738F09F5F6F
:103AA0005F4F220F331F441FAA1FA9F333D00E2EDE
:103AB0003AF0E0E830D091505040E695001CCAF74B
:103AC00029D0FE2F27D0660F771F881FBB1F261710
:103AD00037074807AB07B0E809F0BB0B802DBF01E3
:103AE000FF2793585F4F2AF09E3F510568F0B6C0FC
:103AF00000C15F3FECF3983EDCF3869577956795C0
:103B0000B795F7959F5FC9F7880F911D9695879593
:103B100097F90895E1E0660F771F881FBB1F6217B2
:103B200073078407BA0720F0621B730B840BBA0B70
:103B3000EE1F88F7E095089504D06894B111D9C0BC
:103B40000895BCD088F09F5790F0B92F9927B751AE
:103B5000A0F0D1F0660F771F881F991F1AF0BA9551
:103B6000C9F712C0B13081F0C3D0B1E00895C0C030
:103B7000672F782F8827B85F39F0B93FCCF3869547
:103B800077956795B395D9F73EF4909580957095A4
:103B900061957F4F8F4F9F4F0895E89409C097FB21
:103BA0003EF490958095709561957F4F8F4F9F4F14
:103BB0009923A9F0F92F96E9BB279395F695879558
:103BC00077956795B795F111F8CFFAF4BB0F11F41B
:103BD00060FF1BC06F5F7F4F8F4F9F4F16C08823C2
:103BE00011F096E911C0772321F09EE8872F762FF8
:103BF00005C0662371F096E8862F70E060E02AF039
:103C00009A95660F771F881FDAF7880F9695879524
:103C100097F90895990F0008550FAA0BE0E8FEEFF9
:103C200016161706E807F907C0F012161306E40780
:103C3000F50798F0621B730B840B950B39F40A2679
:103C400061F0232B242B252B21F408950A2609F457
:103C5000A140A6958FEF811D811D089597F99F675B
:103C600080E870E060E008959FEF80EC0895002404
:103C70000A941616170618060906089500240A94D1
:103C800012161306140605060895092E0394000C57
:103C900011F4882352F0BB0F40F4BF2B11F460FFE6
:103CA00004C06F5F7F4F8F4F9F4F089557FD90580F
:103CB000440F551F59F05F3F71F04795880F97FBF0
:103CC000991F61F09F3F79F08795089512161306AA
:103CD0001406551FF2CF4695F1DF08C016161706D9
:103CE0001806991FF1CF869571056105089408950E
:103CF000E894BB2766277727CB0197F908950BD067
:103D0000C4CFB5DF28F0BADF18F0952309F0A6CFAD
:103D1000ABCF1124EECFCADFA0F3959FD1F3950F5F
:103D200050E0551F629FF001729FBB27F00DB11D3F
:103D3000639FAA27F00DB11DAA1F649F6627B00DCF
:103D4000A11D661F829F2227B00DA11D621F739FB8
:103D5000B00DA11D621F839FA00D611D221F749FC6
:103D60003327A00D611D231F849F600D211D822F0D
:103D7000762F6A2F11249F5750408AF0E1F0882354
:103D80004AF0EE0FFF1FBB1F661F771F881F915061
:103D90005040A9F79E3F510570F060CFAACF5F3F1A
:103DA000ECF3983EDCF3869577956795B795F79594
:103DB000E7959F5FC1F7FE2B880F911D969587951C
:103DC00097F90895629FD001739FF001829FE00DE3
:103DD000F11D649FE00DF11D929FF00D839FF00D8A
:103DE000749FF00D659FF00D9927729FB00DE11D36
:103DF000F91F639FB00DE11DF91FBD01CF01112413
:103E0000089597FB092E07260AD077FD04D049D0E4
:103E100006D000201AF4709561957F4F0895F6F74B
:103E2000909581959F4F0895A1E21A2EAA1BBB1B66
:103E3000FD010DC0AA1FBB1FEE1FFF1FA217B30776
:103E4000E407F50720F0A21BB30BE40BF50B661F8C
:103E5000771F881F991F1A9469F760957095809550
:103E600090959B01AC01BD01CF01089597FB092EF0
:103E700005260ED057FD04D0D7DF0AD0001C38F439
:103E800050954095309521953F4F4F4F5F4F089586
:103E9000F6F790958095709561957F4F8F4F9F4F66
:103EA0000895AA1BBB1B51E107C0AA1FBB1FA61781
:103EB000B70710F0A61BB70B881F991F5A95A9F7D3
:103EC00080959095BC01CD010895EE0FFF1F0590E0
:103ED000F491E02D0994911116C0803219F08950A7
:103EE0008550D0F708959111089581548A5108F4AE
:103EF000805E855A08959111089581568A5108F47B
:103F00008052855808959927882708952F923F92C7
:103F10004F925F926F927F928F929F92AF92BF92D9
:103F2000CF92DF92EF92FF920F931F93CF93DF9385
:103F3000CDB7DEB7CA1BDB0B0FB6F894DEBF0FBEE2
:103F4000CDBF09942A88398848885F846E847D842F
:103F50008C849B84AA84B984C884DF80EE80FD8031
:103F60000C811B81AA81B981CE0FD11D0FB6F894A7
:0E3F7000DEBF0FBECDBFED010895F894FFCF68
:103F7E00000000001104F4040C05AF03DD0305047A
:103F8E00C303000000002D16F4040C052D162D168B
:103F9E002D162E00000000002D16F4040C05FF0057
:0C3FAE00012000E0040000010000000001
:00000001FF
